{
  "_format": "hh-sol-artifact-1",
  "contractName": "IntentPlugin",
  "sourceName": "contracts/IntentSafePlugin.sol",
  "abi": [
    {
      "inputs": [
        {
          "internalType": "address",
          "name": "_trustedSettlementEntity",
          "type": "address"
        }
      ],
      "stateMutability": "nonpayable",
      "type": "constructor"
    },
    {
      "inputs": [],
      "name": "ReentrancyProtectionActivated",
      "type": "error"
    },
    {
      "anonymous": false,
      "inputs": [
        {
          "indexed": false,
          "internalType": "bytes32",
          "name": "atoHash",
          "type": "bytes32"
        },
        {
          "indexed": false,
          "internalType": "uint256",
          "name": "fee",
          "type": "uint256"
        }
      ],
      "name": "FeePaid",
      "type": "event"
    },
    {
      "anonymous": false,
      "inputs": [
        {
          "indexed": true,
          "internalType": "bytes32",
          "name": "metadataHash",
          "type": "bytes32"
        },
        {
          "indexed": false,
          "internalType": "bytes",
          "name": "data",
          "type": "bytes"
        }
      ],
      "name": "Metadata",
      "type": "event"
    },
    {
      "inputs": [],
      "name": "SETTLEMENT_ENTITY",
      "outputs": [
        {
          "internalType": "address",
          "name": "",
          "type": "address"
        }
      ],
      "stateMutability": "view",
      "type": "function"
    },
    {
      "inputs": [
        {
          "components": [
            {
              "internalType": "enum IDSNIntentModule.ATOOperation",
              "name": "Operation",
              "type": "uint8"
            },
            {
              "internalType": "uint256",
              "name": "minTokenIn",
              "type": "uint256"
            },
            {
              "internalType": "uint256",
              "name": "maxTokenIn",
              "type": "uint256"
            },
            {
              "internalType": "uint256",
              "name": "minTokenOut",
              "type": "uint256"
            },
            {
              "internalType": "uint256",
              "name": "maxTokenOut",
              "type": "uint256"
            },
            {
              "internalType": "address",
              "name": "tokenInAddress",
              "type": "address"
            },
            {
              "internalType": "address",
              "name": "tokenOutAddress",
              "type": "address"
            },
            {
              "internalType": "uint256",
              "name": "sourceChainId",
              "type": "uint256"
            },
            {
              "internalType": "uint256",
              "name": "destinationChainId",
              "type": "uint256"
            }
          ],
          "internalType": "struct IDSNIntentModule.ATO[]",
          "name": "_intent",
          "type": "tuple[]"
        },
        {
          "internalType": "address",
          "name": "_sender",
          "type": "address"
        }
      ],
      "name": "getATOHash",
      "outputs": [
        {
          "internalType": "bytes32",
          "name": "",
          "type": "bytes32"
        }
      ],
      "stateMutability": "view",
      "type": "function"
    },
    {
      "inputs": [
        {
          "components": [
            {
              "internalType": "enum IDSNIntentModule.ATOOperation",
              "name": "Operation",
              "type": "uint8"
            },
            {
              "internalType": "uint256",
              "name": "minTokenIn",
              "type": "uint256"
            },
            {
              "internalType": "uint256",
              "name": "maxTokenIn",
              "type": "uint256"
            },
            {
              "internalType": "uint256",
              "name": "minTokenOut",
              "type": "uint256"
            },
            {
              "internalType": "uint256",
              "name": "maxTokenOut",
              "type": "uint256"
            },
            {
              "internalType": "address",
              "name": "tokenInAddress",
              "type": "address"
            },
            {
              "internalType": "address",
              "name": "tokenOutAddress",
              "type": "address"
            },
            {
              "internalType": "uint256",
              "name": "sourceChainId",
              "type": "uint256"
            },
            {
              "internalType": "uint256",
              "name": "destinationChainId",
              "type": "uint256"
            }
          ],
          "internalType": "struct IDSNIntentModule.ATO[]",
          "name": "_intent",
          "type": "tuple[]"
        }
      ],
      "name": "getFeeQuote",
      "outputs": [
        {
          "internalType": "uint256",
          "name": "",
          "type": "uint256"
        }
      ],
      "stateMutability": "view",
      "type": "function"
    },
    {
      "inputs": [],
      "name": "metadataHash",
      "outputs": [
        {
          "internalType": "bytes32",
          "name": "",
          "type": "bytes32"
        }
      ],
      "stateMutability": "view",
      "type": "function"
    },
    {
      "inputs": [],
      "name": "metadataProvider",
      "outputs": [
        {
          "internalType": "uint256",
          "name": "providerType",
          "type": "uint256"
        },
        {
          "internalType": "bytes",
          "name": "location",
          "type": "bytes"
        }
      ],
      "stateMutability": "view",
      "type": "function"
    },
    {
      "inputs": [],
      "name": "name",
      "outputs": [
        {
          "internalType": "string",
          "name": "",
          "type": "string"
        }
      ],
      "stateMutability": "view",
      "type": "function"
    },
    {
      "inputs": [
        {
          "internalType": "contract ISafeProtocolManager",
          "name": "_manager",
          "type": "address"
        },
        {
          "internalType": "contract ISafe",
          "name": "_userSafeAccount",
          "type": "address"
        },
        {
          "components": [
            {
              "internalType": "address",
              "name": "sender",
              "type": "address"
            },
            {
              "components": [
                {
                  "internalType": "enum IDSNIntentModule.ATOOperation",
                  "name": "Operation",
                  "type": "uint8"
                },
                {
                  "internalType": "uint256",
                  "name": "minTokenIn",
                  "type": "uint256"
                },
                {
                  "internalType": "uint256",
                  "name": "maxTokenIn",
                  "type": "uint256"
                },
                {
                  "internalType": "uint256",
                  "name": "minTokenOut",
                  "type": "uint256"
                },
                {
                  "internalType": "uint256",
                  "name": "maxTokenOut",
                  "type": "uint256"
                },
                {
                  "internalType": "address",
                  "name": "tokenInAddress",
                  "type": "address"
                },
                {
                  "internalType": "address",
                  "name": "tokenOutAddress",
                  "type": "address"
                },
                {
                  "internalType": "uint256",
                  "name": "sourceChainId",
                  "type": "uint256"
                },
                {
                  "internalType": "uint256",
                  "name": "destinationChainId",
                  "type": "uint256"
                }
              ],
              "internalType": "struct IDSNIntentModule.ATO[]",
              "name": "intent",
              "type": "tuple[]"
            },
            {
              "internalType": "uint256",
              "name": "nonce",
              "type": "uint256"
            }
          ],
          "internalType": "struct IDSNIntentModule.UserIntent",
          "name": "_userIntent",
          "type": "tuple"
        }
      ],
      "name": "payFeesAndExecuteIntent",
      "outputs": [
        {
          "internalType": "bool",
          "name": "",
          "type": "bool"
        }
      ],
      "stateMutability": "nonpayable",
      "type": "function"
    },
    {
      "inputs": [
        {
          "internalType": "uint256",
          "name": "",
          "type": "uint256"
        }
      ],
      "name": "protocolAction",
      "outputs": [
        {
          "internalType": "address payable",
          "name": "to",
          "type": "address"
        },
        {
          "internalType": "uint256",
          "name": "value",
          "type": "uint256"
        },
        {
          "internalType": "bytes",
          "name": "data",
          "type": "bytes"
        }
      ],
      "stateMutability": "view",
      "type": "function"
    },
    {
      "inputs": [],
      "name": "requiresRootAccess",
      "outputs": [
        {
          "internalType": "bool",
          "name": "",
          "type": "bool"
        }
      ],
      "stateMutability": "view",
      "type": "function"
    },
    {
      "inputs": [
        {
          "internalType": "bytes4",
          "name": "interfaceId",
          "type": "bytes4"
        }
      ],
      "name": "supportsInterface",
      "outputs": [
        {
          "internalType": "bool",
          "name": "",
          "type": "bool"
        }
      ],
      "stateMutability": "pure",
      "type": "function"
    },
    {
      "inputs": [
        {
          "internalType": "address",
          "name": "",
          "type": "address"
        }
      ],
      "name": "userIntentNonceManager",
      "outputs": [
        {
          "internalType": "uint256",
          "name": "",
          "type": "uint256"
        }
      ],
      "stateMutability": "view",
      "type": "function"
    },
    {
      "inputs": [],
      "name": "version",
      "outputs": [
        {
          "internalType": "string",
          "name": "",
          "type": "string"
        }
      ],
      "stateMutability": "view",
      "type": "function"
    }
  ],
  "bytecode": "0x60c06040523480156200001157600080fd5b5060405162002b2f38038062002b2f8339818101604052810190620000379190620002ea565b6040518060a001604052806040518060400160405280600d81526020017f496e74656e7420506c7567696e0000000000000000000000000000000000000081525081526020016040518060400160405280600581526020017f312e302e3000000000000000000000000000000000000000000000000000000081525081526020016000151581526020016040518060200160405280600081525081526020016040518060400160405280601381526020017f68747470733a2f2f62616e616e6168712e696f000000000000000000000000008152508152508080600001516000908162000125919062000596565b508060200151600190816200013b919062000596565b508060400151151560808115158152505062000162816200021360201b62000cee1760201c565b8051906020012060a081815250505060a0517f522c683f99251eea7f3b027592e92a5398e7582983be1f7c0f33715ce025740f620001ab836200021360201b62000cee1760201c565b604051620001ba919062000717565b60405180910390a250600160028190555080600360006101000a81548173ffffffffffffffffffffffffffffffffffffffff021916908373ffffffffffffffffffffffffffffffffffffffff16021790555050620008ed565b60606000808360000151846020015185604001518660600151876080015160405160200162000247959493929190620007aa565b6040516020818303038152906040526040516020016200026a93929190620008ae565b6040516020818303038152906040529050919050565b600080fd5b600073ffffffffffffffffffffffffffffffffffffffff82169050919050565b6000620002b28262000285565b9050919050565b620002c481620002a5565b8114620002d057600080fd5b50565b600081519050620002e481620002b9565b92915050565b60006020828403121562000303576200030262000280565b5b60006200031384828501620002d3565b91505092915050565b600081519050919050565b7f4e487b7100000000000000000000000000000000000000000000000000000000600052604160045260246000fd5b7f4e487b7100000000000000000000000000000000000000000000000000000000600052602260045260246000fd5b600060028204905060018216806200039e57607f821691505b602082108103620003b457620003b362000356565b5b50919050565b60008190508160005260206000209050919050565b60006020601f8301049050919050565b600082821b905092915050565b6000600883026200041e7fffffffffffffffffffffffffffffffffffffffffffffffffffffffffffffffff82620003df565b6200042a8683620003df565b95508019841693508086168417925050509392505050565b6000819050919050565b6000819050919050565b600062000477620004716200046b8462000442565b6200044c565b62000442565b9050919050565b6000819050919050565b620004938362000456565b620004ab620004a2826200047e565b848454620003ec565b825550505050565b600090565b620004c2620004b3565b620004cf81848462000488565b505050565b5b81811015620004f757620004eb600082620004b8565b600181019050620004d5565b5050565b601f82111562000546576200051081620003ba565b6200051b84620003cf565b810160208510156200052b578190505b620005436200053a85620003cf565b830182620004d4565b50505b505050565b600082821c905092915050565b60006200056b600019846008026200054b565b1980831691505092915050565b600062000586838362000558565b9150826002028217905092915050565b620005a1826200031c565b67ffffffffffffffff811115620005bd57620005bc62000327565b5b620005c9825462000385565b620005d6828285620004fb565b600060209050601f8311600181146200060e5760008415620005f9578287015190505b62000605858262000578565b86555062000675565b601f1984166200061e86620003ba565b60005b82811015620006485784890151825560018201915060208501945060208101905062000621565b8683101562000668578489015162000664601f89168262000558565b8355505b6001600288020188555050505b505050505050565b600081519050919050565b600082825260208201905092915050565b60005b83811015620006b95780820151818401526020810190506200069c565b60008484015250505050565b6000601f19601f8301169050919050565b6000620006e3826200067d565b620006ef818562000688565b93506200070181856020860162000699565b6200070c81620006c5565b840191505092915050565b60006020820190508181036000830152620007338184620006d6565b905092915050565b600082825260208201905092915050565b600062000759826200031c565b6200076581856200073b565b93506200077781856020860162000699565b6200078281620006c5565b840191505092915050565b60008115159050919050565b620007a4816200078d565b82525050565b600060a0820190508181036000830152620007c681886200074c565b90508181036020830152620007dc81876200074c565b9050620007ed604083018662000799565b81810360608301526200080181856200074c565b905081810360808301526200081781846200074c565b90509695505050505050565b600060ff82169050919050565b60008160f81b9050919050565b60006200084a8262000830565b9050919050565b62000866620008608262000823565b6200083d565b82525050565b600081905092915050565b600062000884826200067d565b6200089081856200086c565b9350620008a281856020860162000699565b80840191505092915050565b6000620008bc828662000851565b600182019150620008ce828562000851565b600182019150620008e0828462000877565b9150819050949350505050565b60805160a05161221c6200091360003960006105eb015260006105c7015261221c6000f3fe608060405234801561001057600080fd5b50600436106100b45760003560e01c80639c9e875d116100715780639c9e875d146101b7578063be193d27146101d5578063c5a1d7f0146101f3578063d38c2d3714610211578063d3d72d2a14610241578063dcd47b3c14610260576100b4565b806301ffc9a7146100b957806306fdde03146100e957806309e1d0ec1461010757806354fd4d501461013757806361c25efc14610155578063969ae1bb14610187575b600080fd5b6100d360048036038101906100ce9190610dc3565b610290565b6040516100e09190610e0b565b60405180910390f35b6100f16102fa565b6040516100fe9190610eb6565b60405180910390f35b610121600480360381019061011c9190610f3e565b610388565b60405161012e9190610fa4565b60405180910390f35b61013f61039b565b60405161014c9190610eb6565b60405180910390f35b61016f600480360381019061016a9190610feb565b610429565b60405161017e939291906110ae565b60405180910390f35b6101a1600480360381019061019c919061112a565b61050b565b6040516101ae91906111a3565b60405180910390f35b6101bf61059f565b6040516101cc91906111cd565b60405180910390f35b6101dd6105c5565b6040516101ea9190610e0b565b60405180910390f35b6101fb6105e9565b60405161020891906111a3565b60405180910390f35b61022b60048036038101906102269190611288565b61060d565b6040516102389190610e0b565b60405180910390f35b610249610c97565b6040516102579291906112f7565b60405180910390f35b61027a60048036038101906102759190611327565b610cd6565b6040516102879190610fa4565b60405180910390f35b60007f6930ebcc000000000000000000000000000000000000000000000000000000007bffffffffffffffffffffffffffffffffffffffffffffffffffffffff1916827bffffffffffffffffffffffffffffffffffffffffffffffffffffffff1916149050919050565b6000805461030790611383565b80601f016020809104026020016040519081016040528092919081815260200182805461033390611383565b80156103805780601f1061035557610100808354040283529160200191610380565b820191906000526020600020905b81548152906001019060200180831161036357829003601f168201915b505050505081565b600067016345785d8a0000905092915050565b600180546103a890611383565b80601f01602080910402602001604051908101604052809291908181526020018280546103d490611383565b80156104215780601f106103f657610100808354040283529160200191610421565b820191906000526020600020905b81548152906001019060200180831161040457829003601f168201915b505050505081565b6005818154811061043957600080fd5b90600052602060002090600302016000915090508060000160009054906101000a900473ffffffffffffffffffffffffffffffffffffffff169080600101549080600201805461048890611383565b80601f01602080910402602001604051908101604052809291908181526020018280546104b490611383565b80156105015780601f106104d657610100808354040283529160200191610501565b820191906000526020600020905b8154815290600101906020018083116104e457829003601f168201915b5050505050905083565b6000838360405160200161052092919061165c565b604051602081830303815290604052600460008473ffffffffffffffffffffffffffffffffffffffff1673ffffffffffffffffffffffffffffffffffffffff168152602001908152602001600020546040516020016105809291906116dd565b6040516020818303038152906040528051906020012090509392505050565b600360009054906101000a900473ffffffffffffffffffffffffffffffffffffffff1681565b7f000000000000000000000000000000000000000000000000000000000000000081565b7f000000000000000000000000000000000000000000000000000000000000000081565b60008073ffffffffffffffffffffffffffffffffffffffff168373ffffffffffffffffffffffffffffffffffffffff160361067d576040517f08c379a000000000000000000000000000000000000000000000000000000000815260040161067490611751565b60405180910390fd5b8160000160208101906106909190611327565b73ffffffffffffffffffffffffffffffffffffffff168373ffffffffffffffffffffffffffffffffffffffff16146106fd576040517f08c379a00000000000000000000000000000000000000000000000000000000081526004016106f4906117bd565b60405180910390fd5b8160400135600460008460000160208101906107199190611327565b73ffffffffffffffffffffffffffffffffffffffff1673ffffffffffffffffffffffffffffffffffffffff1681526020019081526020016000205414610794576040517f08c379a000000000000000000000000000000000000000000000000000000000815260040161078b90611829565b60405180910390fd5b6107ac8280602001906107a79190611858565b610388565b8373ffffffffffffffffffffffffffffffffffffffff16311015610805576040517f08c379a00000000000000000000000000000000000000000000000000000000081526004016107fc90611908565b60405180910390fd5b60016004600084600001602081019061081e9190611327565b73ffffffffffffffffffffffffffffffffffffffff1673ffffffffffffffffffffffffffffffffffffffff16815260200190815260200160002060008282546108679190611957565b92505081905550600061089b8380602001906108839190611858565b8560000160208101906108969190611327565b61050b565b905060006040518060600160405280600360009054906101000a900473ffffffffffffffffffffffffffffffffffffffff1673ffffffffffffffffffffffffffffffffffffffff1681526020016109008680602001906108fb9190611858565b610388565b81526020016040518060400160405280600281526020017f30780000000000000000000000000000000000000000000000000000000000008152508152509050600581908060018154018082558091505060019003906000526020600020906003020160009091909190915060008201518160000160006101000a81548173ffffffffffffffffffffffffffffffffffffffff021916908373ffffffffffffffffffffffffffffffffffffffff1602179055506020820151816001015560408201518160020190816109d29190611b66565b505050600060405180606001604052806005805480602002602001604051908101604052809291908181526020016000905b82821015610b2857838290600052602060002090600302016040518060600160405290816000820160009054906101000a900473ffffffffffffffffffffffffffffffffffffffff1673ffffffffffffffffffffffffffffffffffffffff1673ffffffffffffffffffffffffffffffffffffffff16815260200160018201548152602001600282018054610a9790611383565b80601f0160208091040260200160405190810160405280929190818152602001828054610ac390611383565b8015610b105780601f10610ae557610100808354040283529160200191610b10565b820191906000526020600020905b815481529060010190602001808311610af357829003601f168201915b50505050508152505081526020019060010190610a04565b5050505081526020016000815260200184815250905060008773ffffffffffffffffffffffffffffffffffffffff16630f99191588846040518363ffffffff1660e01b8152600401610b7b929190611e57565b6000604051808303816000875af1158015610b9a573d6000803e3d6000fd5b505050506040513d6000823e3d601f19601f82011682018060405250810190610bc3919061205a565b90506040518060400160405280600281526020017f4f6b0000000000000000000000000000000000000000000000000000000000008152508051906020012081600081518110610c1657610c156120a3565b5b60200260200101518051906020012003610c87577f9cf79fcf416ca01c3beb6599ca61e82c41f8c0e9c1cb3b0748bed801f48d793484610c64888060200190610c5f9190611858565b610388565b604051610c729291906120d2565b60405180910390a16001945050505050610c90565b60009450505050505b9392505050565b60006060600380811115610cae57610cad61140b565b5b915030604051602001610cc191906111cd565b60405160208183030381529060405290509091565b60046020528060005260406000206000915090505481565b606060008083600001518460200151856040015186606001518760800151604051602001610d209594939291906120fb565b604051602081830303815290604052604051602001610d41939291906121ad565b6040516020818303038152906040529050919050565b6000604051905090565b600080fd5b600080fd5b60007fffffffff0000000000000000000000000000000000000000000000000000000082169050919050565b610da081610d6b565b8114610dab57600080fd5b50565b600081359050610dbd81610d97565b92915050565b600060208284031215610dd957610dd8610d61565b5b6000610de784828501610dae565b91505092915050565b60008115159050919050565b610e0581610df0565b82525050565b6000602082019050610e206000830184610dfc565b92915050565b600081519050919050565b600082825260208201905092915050565b60005b83811015610e60578082015181840152602081019050610e45565b60008484015250505050565b6000601f19601f8301169050919050565b6000610e8882610e26565b610e928185610e31565b9350610ea2818560208601610e42565b610eab81610e6c565b840191505092915050565b60006020820190508181036000830152610ed08184610e7d565b905092915050565b600080fd5b600080fd5b600080fd5b60008083601f840112610efd57610efc610ed8565b5b8235905067ffffffffffffffff811115610f1a57610f19610edd565b5b60208301915083610120820283011115610f3757610f36610ee2565b5b9250929050565b60008060208385031215610f5557610f54610d61565b5b600083013567ffffffffffffffff811115610f7357610f72610d66565b5b610f7f85828601610ee7565b92509250509250929050565b6000819050919050565b610f9e81610f8b565b82525050565b6000602082019050610fb96000830184610f95565b92915050565b610fc881610f8b565b8114610fd357600080fd5b50565b600081359050610fe581610fbf565b92915050565b60006020828403121561100157611000610d61565b5b600061100f84828501610fd6565b91505092915050565b600073ffffffffffffffffffffffffffffffffffffffff82169050919050565b600061104382611018565b9050919050565b61105381611038565b82525050565b600081519050919050565b600082825260208201905092915050565b600061108082611059565b61108a8185611064565b935061109a818560208601610e42565b6110a381610e6c565b840191505092915050565b60006060820190506110c3600083018661104a565b6110d06020830185610f95565b81810360408301526110e28184611075565b9050949350505050565b60006110f782611018565b9050919050565b611107816110ec565b811461111257600080fd5b50565b600081359050611124816110fe565b92915050565b60008060006040848603121561114357611142610d61565b5b600084013567ffffffffffffffff81111561116157611160610d66565b5b61116d86828701610ee7565b9350935050602061118086828701611115565b9150509250925092565b6000819050919050565b61119d8161118a565b82525050565b60006020820190506111b86000830184611194565b92915050565b6111c7816110ec565b82525050565b60006020820190506111e260008301846111be565b92915050565b60006111f3826110ec565b9050919050565b611203816111e8565b811461120e57600080fd5b50565b600081359050611220816111fa565b92915050565b6000611231826110ec565b9050919050565b61124181611226565b811461124c57600080fd5b50565b60008135905061125e81611238565b92915050565b600080fd5b60006060828403121561127f5761127e611264565b5b81905092915050565b6000806000606084860312156112a1576112a0610d61565b5b60006112af86828701611211565b93505060206112c08682870161124f565b925050604084013567ffffffffffffffff8111156112e1576112e0610d66565b5b6112ed86828701611269565b9150509250925092565b600060408201905061130c6000830185610f95565b818103602083015261131e8184611075565b90509392505050565b60006020828403121561133d5761133c610d61565b5b600061134b84828501611115565b91505092915050565b7f4e487b7100000000000000000000000000000000000000000000000000000000600052602260045260246000fd5b6000600282049050600182168061139b57607f821691505b6020821081036113ae576113ad611354565b5b50919050565b600082825260208201905092915050565b6000819050919050565b600381106113dc57600080fd5b50565b6000813590506113ee816113cf565b92915050565b600061140360208401846113df565b905092915050565b7f4e487b7100000000000000000000000000000000000000000000000000000000600052602160045260246000fd5b6003811061144b5761144a61140b565b5b50565b600081905061145c8261143a565b919050565b600061146c8261144e565b9050919050565b61147c81611461565b82525050565b60006114916020840184610fd6565b905092915050565b6114a281610f8b565b82525050565b60006114b76020840184611115565b905092915050565b6114c8816110ec565b82525050565b61012082016114e060008301836113f4565b6114ed6000850182611473565b506114fb6020830183611482565b6115086020850182611499565b506115166040830183611482565b6115236040850182611499565b506115316060830183611482565b61153e6060850182611499565b5061154c6080830183611482565b6115596080850182611499565b5061156760a08301836114a8565b61157460a08501826114bf565b5061158260c08301836114a8565b61158f60c08501826114bf565b5061159d60e0830183611482565b6115aa60e0850182611499565b506115b9610100830183611482565b6115c7610100850182611499565b50505050565b60006115d983836114ce565b6101208301905092915050565b600082905092915050565b600061012082019050919050565b600061160b83856113b4565b9350611616826113c5565b8060005b8581101561164f5761162c82846115e6565b61163688826115cd565b9750611641836115f1565b92505060018101905061161a565b5085925050509392505050565b600060208201905081810360008301526116778184866115ff565b90509392505050565b600081905092915050565b600061169682611059565b6116a08185611680565b93506116b0818560208601610e42565b80840191505092915050565b6000819050919050565b6116d76116d282610f8b565b6116bc565b82525050565b60006116e9828561168b565b91506116f582846116c6565b6020820191508190509392505050565b7f496e76616c69642073616665206163636f756e74000000000000000000000000600082015250565b600061173b601483610e31565b915061174682611705565b602082019050919050565b6000602082019050818103600083015261176a8161172e565b9050919050565b7f53656e646572206973206e6f7420746865206f776e6572000000000000000000600082015250565b60006117a7601783610e31565b91506117b282611771565b602082019050919050565b600060208201905081810360008301526117d68161179a565b9050919050565b7f496e76616c6964206e6f6e636500000000000000000000000000000000000000600082015250565b6000611813600d83610e31565b915061181e826117dd565b602082019050919050565b6000602082019050818103600083015261184281611806565b9050919050565b600080fd5b600080fd5b600080fd5b6000808335600160200384360303811261187557611874611849565b5b80840192508235915067ffffffffffffffff8211156118975761189661184e565b5b602083019250610120820236038313156118b4576118b3611853565b5b509250929050565b7f496e73756666696369656e742066656500000000000000000000000000000000600082015250565b60006118f2601083610e31565b91506118fd826118bc565b602082019050919050565b60006020820190508181036000830152611921816118e5565b9050919050565b7f4e487b7100000000000000000000000000000000000000000000000000000000600052601160045260246000fd5b600061196282610f8b565b915061196d83610f8b565b925082820190508082111561198557611984611928565b5b92915050565b7f4e487b7100000000000000000000000000000000000000000000000000000000600052604160045260246000fd5b60008190508160005260206000209050919050565b60006020601f8301049050919050565b600082821b905092915050565b600060088302611a1c7fffffffffffffffffffffffffffffffffffffffffffffffffffffffffffffffff826119df565b611a2686836119df565b95508019841693508086168417925050509392505050565b6000819050919050565b6000611a63611a5e611a5984610f8b565b611a3e565b610f8b565b9050919050565b6000819050919050565b611a7d83611a48565b611a91611a8982611a6a565b8484546119ec565b825550505050565b600090565b611aa6611a99565b611ab1818484611a74565b505050565b5b81811015611ad557611aca600082611a9e565b600181019050611ab7565b5050565b601f821115611b1a57611aeb816119ba565b611af4846119cf565b81016020851015611b03578190505b611b17611b0f856119cf565b830182611ab6565b50505b505050565b600082821c905092915050565b6000611b3d60001984600802611b1f565b1980831691505092915050565b6000611b568383611b2c565b9150826002028217905092915050565b611b6f82611059565b67ffffffffffffffff811115611b8857611b8761198b565b5b611b928254611383565b611b9d828285611ad9565b600060209050601f831160018114611bd05760008415611bbe578287015190505b611bc88582611b4a565b865550611c30565b601f198416611bde866119ba565b60005b82811015611c0657848901518255600182019150602085019450602081019050611be1565b86831015611c235784890151611c1f601f891682611b2c565b8355505b6001600288020188555050505b505050505050565b6000611c53611c4e611c4984611018565b611a3e565b611018565b9050919050565b6000611c6582611c38565b9050919050565b6000611c7782611c5a565b9050919050565b611c8781611c6c565b82525050565b600081519050919050565b600082825260208201905092915050565b6000819050602082019050919050565b611cc281611038565b82525050565b600082825260208201905092915050565b6000611ce482611059565b611cee8185611cc8565b9350611cfe818560208601610e42565b611d0781610e6c565b840191505092915050565b6000606083016000830151611d2a6000860182611cb9565b506020830151611d3d6020860182611499565b5060408301518482036040860152611d558282611cd9565b9150508091505092915050565b6000611d6e8383611d12565b905092915050565b6000602082019050919050565b6000611d8e82611c8d565b611d988185611c98565b935083602082028501611daa85611ca9565b8060005b85811015611de65784840389528151611dc78582611d62565b9450611dd283611d76565b925060208a01995050600181019050611dae565b50829750879550505050505092915050565b611e018161118a565b82525050565b60006060830160008301518482036000860152611e248282611d83565b9150506020830151611e396020860182611499565b506040830151611e4c6040860182611df8565b508091505092915050565b6000604082019050611e6c6000830185611c7e565b8181036020830152611e7e8184611e07565b90509392505050565b611e9082610e6c565b810181811067ffffffffffffffff82111715611eaf57611eae61198b565b5b80604052505050565b6000611ec2610d57565b9050611ece8282611e87565b919050565b600067ffffffffffffffff821115611eee57611eed61198b565b5b602082029050602081019050919050565b600080fd5b600067ffffffffffffffff821115611f1f57611f1e61198b565b5b611f2882610e6c565b9050602081019050919050565b6000611f48611f4384611f04565b611eb8565b905082815260208101848484011115611f6457611f63611eff565b5b611f6f848285610e42565b509392505050565b600082601f830112611f8c57611f8b610ed8565b5b8151611f9c848260208601611f35565b91505092915050565b6000611fb8611fb384611ed3565b611eb8565b90508083825260208201905060208402830185811115611fdb57611fda610ee2565b5b835b8181101561202257805167ffffffffffffffff81111561200057611fff610ed8565b5b80860161200d8982611f77565b85526020850194505050602081019050611fdd565b5050509392505050565b600082601f83011261204157612040610ed8565b5b8151612051848260208601611fa5565b91505092915050565b6000602082840312156120705761206f610d61565b5b600082015167ffffffffffffffff81111561208e5761208d610d66565b5b61209a8482850161202c565b91505092915050565b7f4e487b7100000000000000000000000000000000000000000000000000000000600052603260045260246000fd5b60006040820190506120e76000830185611194565b6120f46020830184610f95565b9392505050565b600060a08201905081810360008301526121158188610e7d565b905081810360208301526121298187610e7d565b90506121386040830186610dfc565b818103606083015261214a8185610e7d565b9050818103608083015261215e8184610e7d565b90509695505050505050565b600060ff82169050919050565b60008160f81b9050919050565b600061218f82612177565b9050919050565b6121a76121a28261216a565b612184565b82525050565b60006121b98286612196565b6001820191506121c98285612196565b6001820191506121d9828461168b565b915081905094935050505056fea2646970667358221220e8e2f6d3dbc6e32fd434c14cdc3cc6f2491d73b46f7c5472261817ab5234332e64736f6c63430008120033",
  "linkReferences": {},
  "deployedLinkReferences": {}
}