{
    "_format": "hh-sol-artifact-1",
    "contractName": "IntentPlugin",
    "sourceName": "contracts/IntentSafePlugin.sol",
    "abi": [
        {
            "inputs": [
                {
                    "internalType": "address",
                    "name": "_trustedSettlementEntity",
                    "type": "address"
                }
            ],
            "stateMutability": "nonpayable",
            "type": "constructor"
        },
        {
            "inputs": [],
            "name": "ReentrancyProtectionActivated",
            "type": "error"
        },
        {
            "anonymous": false,
            "inputs": [
                {
                    "indexed": true,
                    "internalType": "address",
                    "name": "account",
                    "type": "address"
                },
                {
                    "components": [
                        {
                            "internalType": "enum IDSNIntentModule.ATOOperation",
                            "name": "Operation",
                            "type": "uint8"
                        },
                        {
                            "internalType": "bytes",
                            "name": "fieldsToOptimize",
                            "type": "bytes"
                        },
                        {
                            "internalType": "bytes",
                            "name": "fieldsToOptimizeSchema",
                            "type": "bytes"
                        },
                        {
                            "internalType": "uint256",
                            "name": "chainId",
                            "type": "uint256"
                        },
                        {
                            "internalType": "bytes",
                            "name": "payload",
                            "type": "bytes"
                        },
                        {
                            "internalType": "bytes",
                            "name": "payloadSchema",
                            "type": "bytes"
                        },
                        {
                            "internalType": "address",
                            "name": "sender",
                            "type": "address"
                        }
                    ],
                    "indexed": true,
                    "internalType": "struct IDSNIntentModule.ATO",
                    "name": "ato",
                    "type": "tuple"
                }
            ],
            "name": "ATOBroadcast",
            "type": "event"
        },
        {
            "anonymous": false,
            "inputs": [
                {
                    "indexed": false,
                    "internalType": "bytes32",
                    "name": "atoHash",
                    "type": "bytes32"
                },
                {
                    "indexed": false,
                    "internalType": "uint256",
                    "name": "fee",
                    "type": "uint256"
                }
            ],
            "name": "FeePaid",
            "type": "event"
        },
        {
            "anonymous": false,
            "inputs": [
                {
                    "indexed": true,
                    "internalType": "bytes32",
                    "name": "metadataHash",
                    "type": "bytes32"
                },
                {
                    "indexed": false,
                    "internalType": "bytes",
                    "name": "data",
                    "type": "bytes"
                }
            ],
            "name": "Metadata",
            "type": "event"
        },
        {
            "inputs": [],
            "name": "SETTLEMENT_ENTITY",
            "outputs": [
                {
                    "internalType": "address",
                    "name": "",
                    "type": "address"
                }
            ],
            "stateMutability": "view",
            "type": "function"
        },
        {
            "inputs": [
                {
                    "internalType": "contract ISafeProtocolManager",
                    "name": "manager",
                    "type": "address"
                },
                {
                    "internalType": "contract ISafe",
                    "name": "userSafeAccount",
                    "type": "address"
                },
                {
                    "components": [
                        {
                            "internalType": "enum IDSNIntentModule.ATOOperation",
                            "name": "Operation",
                            "type": "uint8"
                        },
                        {
                            "internalType": "bytes",
                            "name": "fieldsToOptimize",
                            "type": "bytes"
                        },
                        {
                            "internalType": "bytes",
                            "name": "fieldsToOptimizeSchema",
                            "type": "bytes"
                        },
                        {
                            "internalType": "uint256",
                            "name": "chainId",
                            "type": "uint256"
                        },
                        {
                            "internalType": "bytes",
                            "name": "payload",
                            "type": "bytes"
                        },
                        {
                            "internalType": "bytes",
                            "name": "payloadSchema",
                            "type": "bytes"
                        },
                        {
                            "internalType": "address",
                            "name": "sender",
                            "type": "address"
                        }
                    ],
                    "internalType": "struct IDSNIntentModule.ATO",
                    "name": "ato",
                    "type": "tuple"
                }
            ],
            "name": "executeATO",
            "outputs": [
                {
                    "internalType": "bool",
                    "name": "",
                    "type": "bool"
                }
            ],
            "stateMutability": "nonpayable",
            "type": "function"
        },
        {
            "inputs": [
                {
                    "components": [
                        {
                            "internalType": "enum IDSNIntentModule.ATOOperation",
                            "name": "Operation",
                            "type": "uint8"
                        },
                        {
                            "internalType": "bytes",
                            "name": "fieldsToOptimize",
                            "type": "bytes"
                        },
                        {
                            "internalType": "bytes",
                            "name": "fieldsToOptimizeSchema",
                            "type": "bytes"
                        },
                        {
                            "internalType": "uint256",
                            "name": "chainId",
                            "type": "uint256"
                        },
                        {
                            "internalType": "bytes",
                            "name": "payload",
                            "type": "bytes"
                        },
                        {
                            "internalType": "bytes",
                            "name": "payloadSchema",
                            "type": "bytes"
                        },
                        {
                            "internalType": "address",
                            "name": "sender",
                            "type": "address"
                        }
                    ],
                    "internalType": "struct IDSNIntentModule.ATO",
                    "name": "ato",
                    "type": "tuple"
                }
            ],
            "name": "getATOHash",
            "outputs": [
                {
                    "internalType": "bytes32",
                    "name": "",
                    "type": "bytes32"
                }
            ],
            "stateMutability": "view",
            "type": "function"
        },
        {
            "inputs": [
                {
                    "components": [
                        {
                            "internalType": "enum IDSNIntentModule.ATOOperation",
                            "name": "Operation",
                            "type": "uint8"
                        },
                        {
                            "internalType": "bytes",
                            "name": "fieldsToOptimize",
                            "type": "bytes"
                        },
                        {
                            "internalType": "bytes",
                            "name": "fieldsToOptimizeSchema",
                            "type": "bytes"
                        },
                        {
                            "internalType": "uint256",
                            "name": "chainId",
                            "type": "uint256"
                        },
                        {
                            "internalType": "bytes",
                            "name": "payload",
                            "type": "bytes"
                        },
                        {
                            "internalType": "bytes",
                            "name": "payloadSchema",
                            "type": "bytes"
                        },
                        {
                            "internalType": "address",
                            "name": "sender",
                            "type": "address"
                        }
                    ],
                    "internalType": "struct IDSNIntentModule.ATO",
                    "name": "ato",
                    "type": "tuple"
                }
            ],
            "name": "getFeeQuote",
            "outputs": [
                {
                    "internalType": "uint256",
                    "name": "",
                    "type": "uint256"
                }
            ],
            "stateMutability": "view",
            "type": "function"
        },
        {
            "inputs": [],
            "name": "metadataHash",
            "outputs": [
                {
                    "internalType": "bytes32",
                    "name": "",
                    "type": "bytes32"
                }
            ],
            "stateMutability": "view",
            "type": "function"
        },
        {
            "inputs": [],
            "name": "metadataProvider",
            "outputs": [
                {
                    "internalType": "uint256",
                    "name": "providerType",
                    "type": "uint256"
                },
                {
                    "internalType": "bytes",
                    "name": "location",
                    "type": "bytes"
                }
            ],
            "stateMutability": "view",
            "type": "function"
        },
        {
            "inputs": [],
            "name": "name",
            "outputs": [
                {
                    "internalType": "string",
                    "name": "",
                    "type": "string"
                }
            ],
            "stateMutability": "view",
            "type": "function"
        },
        {
            "inputs": [
                {
                    "internalType": "uint256",
                    "name": "",
                    "type": "uint256"
                }
            ],
            "name": "protocolAction",
            "outputs": [
                {
                    "internalType": "address payable",
                    "name": "to",
                    "type": "address"
                },
                {
                    "internalType": "uint256",
                    "name": "value",
                    "type": "uint256"
                },
                {
                    "internalType": "bytes",
                    "name": "data",
                    "type": "bytes"
                }
            ],
            "stateMutability": "view",
            "type": "function"
        },
        {
            "inputs": [],
            "name": "requiresRootAccess",
            "outputs": [
                {
                    "internalType": "bool",
                    "name": "",
                    "type": "bool"
                }
            ],
            "stateMutability": "view",
            "type": "function"
        },
        {
            "inputs": [
                {
                    "internalType": "bytes4",
                    "name": "interfaceId",
                    "type": "bytes4"
                }
            ],
            "name": "supportsInterface",
            "outputs": [
                {
                    "internalType": "bool",
                    "name": "",
                    "type": "bool"
                }
            ],
            "stateMutability": "view",
            "type": "function"
        },
        {
            "inputs": [
                {
                    "internalType": "address",
                    "name": "",
                    "type": "address"
                }
            ],
            "name": "userATONonceManager",
            "outputs": [
                {
                    "internalType": "uint256",
                    "name": "",
                    "type": "uint256"
                }
            ],
            "stateMutability": "view",
            "type": "function"
        },
        {
            "inputs": [],
            "name": "version",
            "outputs": [
                {
                    "internalType": "string",
                    "name": "",
                    "type": "string"
                }
            ],
            "stateMutability": "view",
            "type": "function"
        }
    ],
    "bytecode": "0x60c06040523480156200001157600080fd5b5060405162002886380380620028868339818101604052810190620000379190620002ea565b6040518060a001604052806040518060400160405280600d81526020017f496e74656e7420506c7567696e0000000000000000000000000000000000000081525081526020016040518060400160405280600581526020017f312e302e3000000000000000000000000000000000000000000000000000000081525081526020016000151581526020016040518060200160405280600081525081526020016040518060400160405280601381526020017f68747470733a2f2f62616e616e6168712e696f000000000000000000000000008152508152508080600001516000908162000125919062000596565b508060200151600190816200013b919062000596565b508060400151151560808115158152505062000162816200021360201b62000b211760201c565b8051906020012060a081815250505060a0517f522c683f99251eea7f3b027592e92a5398e7582983be1f7c0f33715ce025740f620001ab836200021360201b62000b211760201c565b604051620001ba919062000717565b60405180910390a250600160028190555080600360006101000a81548173ffffffffffffffffffffffffffffffffffffffff021916908373ffffffffffffffffffffffffffffffffffffffff16021790555050620008ed565b60606000808360000151846020015185604001518660600151876080015160405160200162000247959493929190620007aa565b6040516020818303038152906040526040516020016200026a93929190620008ae565b6040516020818303038152906040529050919050565b600080fd5b600073ffffffffffffffffffffffffffffffffffffffff82169050919050565b6000620002b28262000285565b9050919050565b620002c481620002a5565b8114620002d057600080fd5b50565b600081519050620002e481620002b9565b92915050565b60006020828403121562000303576200030262000280565b5b60006200031384828501620002d3565b91505092915050565b600081519050919050565b7f4e487b7100000000000000000000000000000000000000000000000000000000600052604160045260246000fd5b7f4e487b7100000000000000000000000000000000000000000000000000000000600052602260045260246000fd5b600060028204905060018216806200039e57607f821691505b602082108103620003b457620003b362000356565b5b50919050565b60008190508160005260206000209050919050565b60006020601f8301049050919050565b600082821b905092915050565b6000600883026200041e7fffffffffffffffffffffffffffffffffffffffffffffffffffffffffffffffff82620003df565b6200042a8683620003df565b95508019841693508086168417925050509392505050565b6000819050919050565b6000819050919050565b600062000477620004716200046b8462000442565b6200044c565b62000442565b9050919050565b6000819050919050565b620004938362000456565b620004ab620004a2826200047e565b848454620003ec565b825550505050565b600090565b620004c2620004b3565b620004cf81848462000488565b505050565b5b81811015620004f757620004eb600082620004b8565b600181019050620004d5565b5050565b601f82111562000546576200051081620003ba565b6200051b84620003cf565b810160208510156200052b578190505b620005436200053a85620003cf565b830182620004d4565b50505b505050565b600082821c905092915050565b60006200056b600019846008026200054b565b1980831691505092915050565b600062000586838362000558565b9150826002028217905092915050565b620005a1826200031c565b67ffffffffffffffff811115620005bd57620005bc62000327565b5b620005c9825462000385565b620005d6828285620004fb565b600060209050601f8311600181146200060e5760008415620005f9578287015190505b62000605858262000578565b86555062000675565b601f1984166200061e86620003ba565b60005b82811015620006485784890151825560018201915060208501945060208101905062000621565b8683101562000668578489015162000664601f89168262000558565b8355505b6001600288020188555050505b505050505050565b600081519050919050565b600082825260208201905092915050565b60005b83811015620006b95780820151818401526020810190506200069c565b60008484015250505050565b6000601f19601f8301169050919050565b6000620006e3826200067d565b620006ef818562000688565b93506200070181856020860162000699565b6200070c81620006c5565b840191505092915050565b60006020820190508181036000830152620007338184620006d6565b905092915050565b600082825260208201905092915050565b600062000759826200031c565b6200076581856200073b565b93506200077781856020860162000699565b6200078281620006c5565b840191505092915050565b60008115159050919050565b620007a4816200078d565b82525050565b600060a0820190508181036000830152620007c681886200074c565b90508181036020830152620007dc81876200074c565b9050620007ed604083018662000799565b81810360608301526200080181856200074c565b905081810360808301526200081781846200074c565b90509695505050505050565b600060ff82169050919050565b60008160f81b9050919050565b60006200084a8262000830565b9050919050565b62000866620008608262000823565b6200083d565b82525050565b600081905092915050565b600062000884826200067d565b6200089081856200086c565b9350620008a281856020860162000699565b80840191505092915050565b6000620008bc828662000851565b600182019150620008ce828562000851565b600182019150620008e0828462000877565b9150819050949350505050565b60805160a051611f73620009136000396000610ac00152600061058d0152611f736000f3fe608060405234801561001057600080fd5b50600436106100b45760003560e01c80639c9e875d116100715780639c9e875d146101b75780639ddaeed7146101d5578063be193d2714610205578063be45309e14610223578063c5a1d7f014610253578063d3d72d2a14610271576100b4565b806301ffc9a7146100b957806306fdde03146100e957806354fd4d501461010757806361c25efc1461012557806371c120cc146101575780638e8f96c214610187575b600080fd5b6100d360048036038101906100ce9190610bf6565b610290565b6040516100e09190610c3e565b60405180910390f35b6100f161029b565b6040516100fe9190610ce9565b60405180910390f35b61010f610329565b60405161011c9190610ce9565b60405180910390f35b61013f600480360381019061013a9190610d41565b6103b7565b60405161014e93929190610e13565b60405180910390f35b610171600480360381019061016c9190610e75565b610499565b60405161017e9190610ebe565b60405180910390f35b6101a1600480360381019061019c9190610e75565b6104ab565b6040516101ae9190610ef2565b60405180910390f35b6101bf61054d565b6040516101cc9190610f2e565b60405180910390f35b6101ef60048036038101906101ea9190610f75565b610573565b6040516101fc9190610ebe565b60405180910390f35b61020d61058b565b60405161021a9190610c3e565b60405180910390f35b61023d6004803603810190610238919061101e565b6105af565b60405161024a9190610c3e565b60405180910390f35b61025b610abe565b6040516102689190610ef2565b60405180910390f35b610279610ae2565b60405161028792919061108d565b60405180910390f35b600060019050919050565b600080546102a8906110ec565b80601f01602080910402602001604051908101604052809291908181526020018280546102d4906110ec565b80156103215780601f106102f657610100808354040283529160200191610321565b820191906000526020600020905b81548152906001019060200180831161030457829003601f168201915b505050505081565b60018054610336906110ec565b80601f0160208091040260200160405190810160405280929190818152602001828054610362906110ec565b80156103af5780601f10610384576101008083540402835291602001916103af565b820191906000526020600020905b81548152906001019060200180831161039257829003601f168201915b505050505081565b600581815481106103c757600080fd5b90600052602060002090600302016000915090508060000160009054906101000a900473ffffffffffffffffffffffffffffffffffffffff1690806001015490806002018054610416906110ec565b80601f0160208091040260200160405190810160405280929190818152602001828054610442906110ec565b801561048f5780601f106104645761010080835404028352916020019161048f565b820191906000526020600020905b81548152906001019060200180831161047257829003601f168201915b5050505050905083565b600067016345785d8a00009050919050565b6000816040516020016104be91906113cc565b604051602081830303815290604052600460008460c00160208101906104e49190610f75565b73ffffffffffffffffffffffffffffffffffffffff1673ffffffffffffffffffffffffffffffffffffffff1681526020019081526020016000205460405160200161053092919061144b565b604051602081830303815290604052805190602001209050919050565b600360009054906101000a900473ffffffffffffffffffffffffffffffffffffffff1681565b60046020528060005260406000206000915090505481565b7f000000000000000000000000000000000000000000000000000000000000000081565b60006001600460008460c00160208101906105ca9190610f75565b73ffffffffffffffffffffffffffffffffffffffff1673ffffffffffffffffffffffffffffffffffffffff168152602001908152602001600020600082825461061391906114a2565b9250508190555061062382610499565b8373ffffffffffffffffffffffffffffffffffffffff1631101561067c576040517f08c379a000000000000000000000000000000000000000000000000000000000815260040161067390611522565b60405180910390fd5b6000610687836104ab565b905060006040518060600160405280600360009054906101000a900473ffffffffffffffffffffffffffffffffffffffff1673ffffffffffffffffffffffffffffffffffffffff1681526020016106dd86610499565b81526020016040518060400160405280600281526020017f30780000000000000000000000000000000000000000000000000000000000008152508152509050600581908060018154018082558091505060019003906000526020600020906003020160009091909190915060008201518160000160006101000a81548173ffffffffffffffffffffffffffffffffffffffff021916908373ffffffffffffffffffffffffffffffffffffffff1602179055506020820151816001015560408201518160020190816107af919061171d565b505050600060405180606001604052806005805480602002602001604051908101604052809291908181526020016000905b8282101561090557838290600052602060002090600302016040518060600160405290816000820160009054906101000a900473ffffffffffffffffffffffffffffffffffffffff1673ffffffffffffffffffffffffffffffffffffffff1673ffffffffffffffffffffffffffffffffffffffff16815260200160018201548152602001600282018054610874906110ec565b80601f01602080910402602001604051908101604052809291908181526020018280546108a0906110ec565b80156108ed5780601f106108c2576101008083540402835291602001916108ed565b820191906000526020600020905b8154815290600101906020018083116108d057829003601f168201915b505050505081525050815260200190600101906107e1565b5050505081526020016000815260200184815250905060008773ffffffffffffffffffffffffffffffffffffffff16630f99191588846040518363ffffffff1660e01b81526004016109589291906119fd565b6000604051808303816000875af1158015610977573d6000803e3d6000fd5b505050506040513d6000823e3d601f19601f820116820180604052508101906109a09190611c0a565b90506040518060400160405280600281526020017f4f6b00000000000000000000000000000000000000000000000000000000000081525080519060200120816000815181106109f3576109f2611c53565b5b60200260200101518051906020012003610aae577f9cf79fcf416ca01c3beb6599ca61e82c41f8c0e9c1cb3b0748bed801f48d793484610a3288610499565b604051610a40929190611c82565b60405180910390a185604051610a569190611e3b565b60405180910390208773ffffffffffffffffffffffffffffffffffffffff167f4a335fa66ff452e3c07a45bd60fe9179b362688afc5128c94659d8cd4959c18c60405160405180910390a36001945050505050610ab7565b60009450505050505b9392505050565b7f000000000000000000000000000000000000000000000000000000000000000081565b60006060600380811115610af957610af8611159565b5b915030604051602001610b0c9190610f2e565b60405160208183030381529060405290509091565b606060008083600001518460200151856040015186606001518760800151604051602001610b53959493929190611e52565b604051602081830303815290604052604051602001610b7493929190611f04565b6040516020818303038152906040529050919050565b6000604051905090565b600080fd5b600080fd5b60007fffffffff0000000000000000000000000000000000000000000000000000000082169050919050565b610bd381610b9e565b8114610bde57600080fd5b50565b600081359050610bf081610bca565b92915050565b600060208284031215610c0c57610c0b610b94565b5b6000610c1a84828501610be1565b91505092915050565b60008115159050919050565b610c3881610c23565b82525050565b6000602082019050610c536000830184610c2f565b92915050565b600081519050919050565b600082825260208201905092915050565b60005b83811015610c93578082015181840152602081019050610c78565b60008484015250505050565b6000601f19601f8301169050919050565b6000610cbb82610c59565b610cc58185610c64565b9350610cd5818560208601610c75565b610cde81610c9f565b840191505092915050565b60006020820190508181036000830152610d038184610cb0565b905092915050565b6000819050919050565b610d1e81610d0b565b8114610d2957600080fd5b50565b600081359050610d3b81610d15565b92915050565b600060208284031215610d5757610d56610b94565b5b6000610d6584828501610d2c565b91505092915050565b600073ffffffffffffffffffffffffffffffffffffffff82169050919050565b6000610d9982610d6e565b9050919050565b610da981610d8e565b82525050565b610db881610d0b565b82525050565b600081519050919050565b600082825260208201905092915050565b6000610de582610dbe565b610def8185610dc9565b9350610dff818560208601610c75565b610e0881610c9f565b840191505092915050565b6000606082019050610e286000830186610da0565b610e356020830185610daf565b8181036040830152610e478184610dda565b9050949350505050565b600080fd5b600060e08284031215610e6c57610e6b610e51565b5b81905092915050565b600060208284031215610e8b57610e8a610b94565b5b600082013567ffffffffffffffff811115610ea957610ea8610b99565b5b610eb584828501610e56565b91505092915050565b6000602082019050610ed36000830184610daf565b92915050565b6000819050919050565b610eec81610ed9565b82525050565b6000602082019050610f076000830184610ee3565b92915050565b6000610f1882610d6e565b9050919050565b610f2881610f0d565b82525050565b6000602082019050610f436000830184610f1f565b92915050565b610f5281610f0d565b8114610f5d57600080fd5b50565b600081359050610f6f81610f49565b92915050565b600060208284031215610f8b57610f8a610b94565b5b6000610f9984828501610f60565b91505092915050565b6000610fad82610f0d565b9050919050565b610fbd81610fa2565b8114610fc857600080fd5b50565b600081359050610fda81610fb4565b92915050565b6000610feb82610f0d565b9050919050565b610ffb81610fe0565b811461100657600080fd5b50565b60008135905061101881610ff2565b92915050565b60008060006060848603121561103757611036610b94565b5b600061104586828701610fcb565b935050602061105686828701611009565b925050604084013567ffffffffffffffff81111561107757611076610b99565b5b61108386828701610e56565b9150509250925092565b60006040820190506110a26000830185610daf565b81810360208301526110b48184610dda565b90509392505050565b7f4e487b7100000000000000000000000000000000000000000000000000000000600052602260045260246000fd5b6000600282049050600182168061110457607f821691505b602082108103611117576111166110bd565b5b50919050565b6006811061112a57600080fd5b50565b60008135905061113c8161111d565b92915050565b6000611151602084018461112d565b905092915050565b7f4e487b7100000000000000000000000000000000000000000000000000000000600052602160045260246000fd5b6006811061119957611198611159565b5b50565b60008190506111aa82611188565b919050565b60006111ba8261119c565b9050919050565b6111ca816111af565b82525050565b600080fd5b600080fd5b600080fd5b600080833560016020038436030381126111fc576111fb6111da565b5b83810192508235915060208301925067ffffffffffffffff821115611224576112236111d0565b5b60018202360383131561123a576112396111d5565b5b509250929050565b600082825260208201905092915050565b82818337600083830152505050565b600061126e8385611242565b935061127b838584611253565b61128483610c9f565b840190509392505050565b600061129e6020840184610d2c565b905092915050565b6112af81610d0b565b82525050565b60006112c46020840184610f60565b905092915050565b6112d581610f0d565b82525050565b600060e083016112ee6000840184611142565b6112fb60008601826111c1565b5061130960208401846111df565b858303602087015261131c838284611262565b9250505061132d60408401846111df565b8583036040870152611340838284611262565b92505050611351606084018461128f565b61135e60608601826112a6565b5061136c60808401846111df565b858303608087015261137f838284611262565b9250505061139060a08401846111df565b85830360a08701526113a3838284611262565b925050506113b460c08401846112b5565b6113c160c08601826112cc565b508091505092915050565b600060208201905081810360008301526113e681846112db565b905092915050565b600081905092915050565b600061140482610dbe565b61140e81856113ee565b935061141e818560208601610c75565b80840191505092915050565b6000819050919050565b61144561144082610d0b565b61142a565b82525050565b600061145782856113f9565b91506114638284611434565b6020820191508190509392505050565b7f4e487b7100000000000000000000000000000000000000000000000000000000600052601160045260246000fd5b60006114ad82610d0b565b91506114b883610d0b565b92508282019050808211156114d0576114cf611473565b5b92915050565b7f496e73756666696369656e742066656500000000000000000000000000000000600082015250565b600061150c601083610c64565b9150611517826114d6565b602082019050919050565b6000602082019050818103600083015261153b816114ff565b9050919050565b7f4e487b7100000000000000000000000000000000000000000000000000000000600052604160045260246000fd5b60008190508160005260206000209050919050565b60006020601f8301049050919050565b600082821b905092915050565b6000600883026115d37fffffffffffffffffffffffffffffffffffffffffffffffffffffffffffffffff82611596565b6115dd8683611596565b95508019841693508086168417925050509392505050565b6000819050919050565b600061161a61161561161084610d0b565b6115f5565b610d0b565b9050919050565b6000819050919050565b611634836115ff565b61164861164082611621565b8484546115a3565b825550505050565b600090565b61165d611650565b61166881848461162b565b505050565b5b8181101561168c57611681600082611655565b60018101905061166e565b5050565b601f8211156116d1576116a281611571565b6116ab84611586565b810160208510156116ba578190505b6116ce6116c685611586565b83018261166d565b50505b505050565b600082821c905092915050565b60006116f4600019846008026116d6565b1980831691505092915050565b600061170d83836116e3565b9150826002028217905092915050565b61172682610dbe565b67ffffffffffffffff81111561173f5761173e611542565b5b61174982546110ec565b611754828285611690565b600060209050601f8311600181146117875760008415611775578287015190505b61177f8582611701565b8655506117e7565b601f19841661179586611571565b60005b828110156117bd57848901518255600182019150602085019450602081019050611798565b868310156117da57848901516117d6601f8916826116e3565b8355505b6001600288020188555050505b505050505050565b600061180a61180561180084610d6e565b6115f5565b610d6e565b9050919050565b600061181c826117ef565b9050919050565b600061182e82611811565b9050919050565b61183e81611823565b82525050565b600081519050919050565b600082825260208201905092915050565b6000819050602082019050919050565b61187981610d8e565b82525050565b600061188a82610dbe565b6118948185611242565b93506118a4818560208601610c75565b6118ad81610c9f565b840191505092915050565b60006060830160008301516118d06000860182611870565b5060208301516118e360208601826112a6565b50604083015184820360408601526118fb828261187f565b9150508091505092915050565b600061191483836118b8565b905092915050565b6000602082019050919050565b600061193482611844565b61193e818561184f565b93508360208202850161195085611860565b8060005b8581101561198c578484038952815161196d8582611908565b94506119788361191c565b925060208a01995050600181019050611954565b50829750879550505050505092915050565b6119a781610ed9565b82525050565b600060608301600083015184820360008601526119ca8282611929565b91505060208301516119df60208601826112a6565b5060408301516119f2604086018261199e565b508091505092915050565b6000604082019050611a126000830185611835565b8181036020830152611a2481846119ad565b90509392505050565b600080fd5b611a3b82610c9f565b810181811067ffffffffffffffff82111715611a5a57611a59611542565b5b80604052505050565b6000611a6d610b8a565b9050611a798282611a32565b919050565b600067ffffffffffffffff821115611a9957611a98611542565b5b602082029050602081019050919050565b600080fd5b600080fd5b600067ffffffffffffffff821115611acf57611ace611542565b5b611ad882610c9f565b9050602081019050919050565b6000611af8611af384611ab4565b611a63565b905082815260208101848484011115611b1457611b13611aaf565b5b611b1f848285610c75565b509392505050565b600082601f830112611b3c57611b3b611a2d565b5b8151611b4c848260208601611ae5565b91505092915050565b6000611b68611b6384611a7e565b611a63565b90508083825260208201905060208402830185811115611b8b57611b8a611aaa565b5b835b81811015611bd257805167ffffffffffffffff811115611bb057611baf611a2d565b5b808601611bbd8982611b27565b85526020850194505050602081019050611b8d565b5050509392505050565b600082601f830112611bf157611bf0611a2d565b5b8151611c01848260208601611b55565b91505092915050565b600060208284031215611c2057611c1f610b94565b5b600082015167ffffffffffffffff811115611c3e57611c3d610b99565b5b611c4a84828501611bdc565b91505092915050565b7f4e487b7100000000000000000000000000000000000000000000000000000000600052603260045260246000fd5b6000604082019050611c976000830185610ee3565b611ca46020830184610daf565b9392505050565b611cb4816111af565b82525050565b6000611cc68383611cab565b60208301905092915050565b600081905092915050565b6000611ce98385611cd2565b9350611cf6838584611253565b611cff83610c9f565b840190509392505050565b6000611d17848484611cdd565b90509392505050565b611d2981610d0b565b82525050565b6000611d3b8383611d20565b60208301905092915050565b611d5081610f0d565b82525050565b6000611d628383611d47565b60208301905092915050565b6000808301611d806000840184611142565b611d8a8582611cba565b945050611d9a60208401846111df565b611da5868284611d0a565b95505050611db660408401846111df565b611dc1868284611d0a565b95505050611dd2606084018461128f565b611ddc8582611d2f565b945050611dec60808401846111df565b611df7868284611d0a565b95505050611e0860a08401846111df565b611e13868284611d0a565b95505050611e2460c08401846112b5565b611e2e8582611d56565b9450508391505092915050565b6000611e478284611d6e565b915081905092915050565b600060a0820190508181036000830152611e6c8188610cb0565b90508181036020830152611e808187610cb0565b9050611e8f6040830186610c2f565b8181036060830152611ea18185610cb0565b90508181036080830152611eb58184610cb0565b90509695505050505050565b600060ff82169050919050565b60008160f81b9050919050565b6000611ee682611ece565b9050919050565b611efe611ef982611ec1565b611edb565b82525050565b6000611f108286611eed565b600182019150611f208285611eed565b600182019150611f3082846113f9565b915081905094935050505056fea264697066735822122045ca9f4078835537ef65e19082e296ee4d61704670c6fd54a3ca650164ed96cd64736f6c63430008120033",
    "linkReferences": {},
    "deployedLinkReferences": {}
}