{
    "_format": "hh-sol-artifact-1",
    "contractName": "SafeProtocolManager",
    "sourceName": "contracts/core/SafeProtocolManager.sol",
    "abi": [
        {
            "inputs": [
                {
                    "internalType": "address",
                    "name": "initialOwner",
                    "type": "address"
                },
                {
                    "internalType": "address",
                    "name": "_registry",
                    "type": "address"
                }
            ],
            "stateMutability": "nonpayable",
            "type": "constructor"
        },
        {
            "inputs": [
                {
                    "internalType": "address",
                    "name": "account",
                    "type": "address"
                },
                {
                    "internalType": "bytes32",
                    "name": "metadataHash",
                    "type": "bytes32"
                },
                {
                    "internalType": "uint256",
                    "name": "index",
                    "type": "uint256"
                }
            ],
            "name": "ActionExecutionFailed",
            "type": "error"
        },
        {
            "inputs": [
                {
                    "internalType": "address",
                    "name": "account",
                    "type": "address"
                }
            ],
            "name": "ContractDoesNotImplementValidInterfaceId",
            "type": "error"
        },
        {
            "inputs": [
                {
                    "internalType": "address",
                    "name": "account",
                    "type": "address"
                },
                {
                    "internalType": "bytes4",
                    "name": "functionSelector",
                    "type": "bytes4"
                }
            ],
            "name": "FunctionHandlerNotSet",
            "type": "error"
        },
        {
            "inputs": [],
            "name": "InvalidCalldataLength",
            "type": "error"
        },
        {
            "inputs": [
                {
                    "internalType": "address",
                    "name": "plugin",
                    "type": "address"
                }
            ],
            "name": "InvalidPluginAddress",
            "type": "error"
        },
        {
            "inputs": [
                {
                    "internalType": "address",
                    "name": "plugin",
                    "type": "address"
                }
            ],
            "name": "InvalidPrevPluginAddress",
            "type": "error"
        },
        {
            "inputs": [
                {
                    "internalType": "address",
                    "name": "sender",
                    "type": "address"
                }
            ],
            "name": "InvalidSender",
            "type": "error"
        },
        {
            "inputs": [
                {
                    "internalType": "address",
                    "name": "account",
                    "type": "address"
                },
                {
                    "internalType": "bytes32",
                    "name": "metadataHash",
                    "type": "bytes32"
                },
                {
                    "internalType": "uint256",
                    "name": "index",
                    "type": "uint256"
                }
            ],
            "name": "InvalidToFieldInSafeProtocolAction",
            "type": "error"
        },
        {
            "inputs": [
                {
                    "internalType": "address",
                    "name": "plugin",
                    "type": "address"
                },
                {
                    "internalType": "uint8",
                    "name": "pluginRequires",
                    "type": "uint8"
                },
                {
                    "internalType": "uint8",
                    "name": "requiredPermission",
                    "type": "uint8"
                },
                {
                    "internalType": "uint8",
                    "name": "givenPermission",
                    "type": "uint8"
                }
            ],
            "name": "MissingPluginPermission",
            "type": "error"
        },
        {
            "inputs": [
                {
                    "internalType": "address",
                    "name": "plugin",
                    "type": "address"
                },
                {
                    "internalType": "uint64",
                    "name": "listedAt",
                    "type": "uint64"
                },
                {
                    "internalType": "uint64",
                    "name": "flaggedAt",
                    "type": "uint64"
                },
                {
                    "internalType": "uint8",
                    "name": "moduleType",
                    "type": "uint8"
                }
            ],
            "name": "ModuleNotPermitted",
            "type": "error"
        },
        {
            "inputs": [
                {
                    "internalType": "address",
                    "name": "account",
                    "type": "address"
                },
                {
                    "internalType": "address",
                    "name": "plugin",
                    "type": "address"
                }
            ],
            "name": "PluginAlreadyEnabled",
            "type": "error"
        },
        {
            "inputs": [
                {
                    "internalType": "address",
                    "name": "plugin",
                    "type": "address"
                }
            ],
            "name": "PluginNotEnabled",
            "type": "error"
        },
        {
            "inputs": [
                {
                    "internalType": "address",
                    "name": "plugin",
                    "type": "address"
                },
                {
                    "internalType": "uint8",
                    "name": "requiredPermissions",
                    "type": "uint8"
                },
                {
                    "internalType": "uint8",
                    "name": "givenPermissions",
                    "type": "uint8"
                }
            ],
            "name": "PluginPermissionsMismatch",
            "type": "error"
        },
        {
            "inputs": [
                {
                    "internalType": "address",
                    "name": "account",
                    "type": "address"
                },
                {
                    "internalType": "bytes32",
                    "name": "metadataHash",
                    "type": "bytes32"
                }
            ],
            "name": "RootAccessActionExecutionFailed",
            "type": "error"
        },
        {
            "inputs": [],
            "name": "ZeroPageSizeNotAllowed",
            "type": "error"
        },
        {
            "anonymous": false,
            "inputs": [
                {
                    "indexed": true,
                    "internalType": "address",
                    "name": "account",
                    "type": "address"
                },
                {
                    "indexed": false,
                    "internalType": "bytes32",
                    "name": "metadataHash",
                    "type": "bytes32"
                },
                {
                    "indexed": false,
                    "internalType": "uint256",
                    "name": "nonce",
                    "type": "uint256"
                }
            ],
            "name": "ActionsExecuted",
            "type": "event"
        },
        {
            "anonymous": false,
            "inputs": [
                {
                    "indexed": true,
                    "internalType": "address",
                    "name": "account",
                    "type": "address"
                },
                {
                    "indexed": true,
                    "internalType": "bytes4",
                    "name": "selector",
                    "type": "bytes4"
                },
                {
                    "indexed": true,
                    "internalType": "address",
                    "name": "functionHandler",
                    "type": "address"
                }
            ],
            "name": "FunctionHandlerChanged",
            "type": "event"
        },
        {
            "anonymous": false,
            "inputs": [
                {
                    "indexed": true,
                    "internalType": "address",
                    "name": "account",
                    "type": "address"
                },
                {
                    "indexed": true,
                    "internalType": "address",
                    "name": "hooksAddress",
                    "type": "address"
                }
            ],
            "name": "HooksChanged",
            "type": "event"
        },
        {
            "anonymous": false,
            "inputs": [
                {
                    "indexed": true,
                    "internalType": "address",
                    "name": "previousOwner",
                    "type": "address"
                },
                {
                    "indexed": true,
                    "internalType": "address",
                    "name": "newOwner",
                    "type": "address"
                }
            ],
            "name": "OwnershipTransferStarted",
            "type": "event"
        },
        {
            "anonymous": false,
            "inputs": [
                {
                    "indexed": true,
                    "internalType": "address",
                    "name": "previousOwner",
                    "type": "address"
                },
                {
                    "indexed": true,
                    "internalType": "address",
                    "name": "newOwner",
                    "type": "address"
                }
            ],
            "name": "OwnershipTransferred",
            "type": "event"
        },
        {
            "anonymous": false,
            "inputs": [
                {
                    "indexed": true,
                    "internalType": "address",
                    "name": "account",
                    "type": "address"
                },
                {
                    "indexed": true,
                    "internalType": "address",
                    "name": "plugin",
                    "type": "address"
                }
            ],
            "name": "PluginDisabled",
            "type": "event"
        },
        {
            "anonymous": false,
            "inputs": [
                {
                    "indexed": true,
                    "internalType": "address",
                    "name": "account",
                    "type": "address"
                },
                {
                    "indexed": true,
                    "internalType": "address",
                    "name": "plugin",
                    "type": "address"
                },
                {
                    "indexed": false,
                    "internalType": "uint8",
                    "name": "permissions",
                    "type": "uint8"
                }
            ],
            "name": "PluginEnabled",
            "type": "event"
        },
        {
            "anonymous": false,
            "inputs": [
                {
                    "indexed": true,
                    "internalType": "address",
                    "name": "oldRegistry",
                    "type": "address"
                },
                {
                    "indexed": true,
                    "internalType": "address",
                    "name": "newRegistry",
                    "type": "address"
                }
            ],
            "name": "RegistryChanged",
            "type": "event"
        },
        {
            "anonymous": false,
            "inputs": [
                {
                    "indexed": true,
                    "internalType": "address",
                    "name": "account",
                    "type": "address"
                },
                {
                    "indexed": false,
                    "internalType": "bytes32",
                    "name": "metadataHash",
                    "type": "bytes32"
                }
            ],
            "name": "RootAccessActionExecuted",
            "type": "event"
        },
        {
            "stateMutability": "nonpayable",
            "type": "fallback"
        },
        {
            "inputs": [],
            "name": "acceptOwnership",
            "outputs": [],
            "stateMutability": "nonpayable",
            "type": "function"
        },
        {
            "inputs": [
                {
                    "internalType": "bytes32",
                    "name": "",
                    "type": "bytes32"
                },
                {
                    "internalType": "bool",
                    "name": "success",
                    "type": "bool"
                }
            ],
            "name": "checkAfterExecution",
            "outputs": [],
            "stateMutability": "nonpayable",
            "type": "function"
        },
        {
            "inputs": [
                {
                    "internalType": "address",
                    "name": "to",
                    "type": "address"
                },
                {
                    "internalType": "uint256",
                    "name": "value",
                    "type": "uint256"
                },
                {
                    "internalType": "bytes",
                    "name": "data",
                    "type": "bytes"
                },
                {
                    "internalType": "enum Enum.Operation",
                    "name": "operation",
                    "type": "uint8"
                },
                {
                    "internalType": "address",
                    "name": "module",
                    "type": "address"
                }
            ],
            "name": "checkModuleTransaction",
            "outputs": [
                {
                    "internalType": "bytes32",
                    "name": "moduleTxHash",
                    "type": "bytes32"
                }
            ],
            "stateMutability": "nonpayable",
            "type": "function"
        },
        {
            "inputs": [
                {
                    "internalType": "address",
                    "name": "to",
                    "type": "address"
                },
                {
                    "internalType": "uint256",
                    "name": "value",
                    "type": "uint256"
                },
                {
                    "internalType": "bytes",
                    "name": "data",
                    "type": "bytes"
                },
                {
                    "internalType": "enum Enum.Operation",
                    "name": "operation",
                    "type": "uint8"
                },
                {
                    "internalType": "uint256",
                    "name": "safeTxGas",
                    "type": "uint256"
                },
                {
                    "internalType": "uint256",
                    "name": "baseGas",
                    "type": "uint256"
                },
                {
                    "internalType": "uint256",
                    "name": "gasPrice",
                    "type": "uint256"
                },
                {
                    "internalType": "address",
                    "name": "gasToken",
                    "type": "address"
                },
                {
                    "internalType": "address payable",
                    "name": "refundReceiver",
                    "type": "address"
                },
                {
                    "internalType": "bytes",
                    "name": "signatures",
                    "type": "bytes"
                },
                {
                    "internalType": "address",
                    "name": "msgSender",
                    "type": "address"
                }
            ],
            "name": "checkTransaction",
            "outputs": [],
            "stateMutability": "nonpayable",
            "type": "function"
        },
        {
            "inputs": [
                {
                    "internalType": "address",
                    "name": "prevPlugin",
                    "type": "address"
                },
                {
                    "internalType": "address",
                    "name": "plugin",
                    "type": "address"
                }
            ],
            "name": "disablePlugin",
            "outputs": [],
            "stateMutability": "nonpayable",
            "type": "function"
        },
        {
            "inputs": [
                {
                    "internalType": "address",
                    "name": "plugin",
                    "type": "address"
                },
                {
                    "internalType": "uint8",
                    "name": "permissions",
                    "type": "uint8"
                }
            ],
            "name": "enablePlugin",
            "outputs": [],
            "stateMutability": "nonpayable",
            "type": "function"
        },
        {
            "inputs": [
                {
                    "internalType": "address",
                    "name": "",
                    "type": "address"
                }
            ],
            "name": "enabledHooks",
            "outputs": [
                {
                    "internalType": "address",
                    "name": "",
                    "type": "address"
                }
            ],
            "stateMutability": "view",
            "type": "function"
        },
        {
            "inputs": [
                {
                    "internalType": "address",
                    "name": "",
                    "type": "address"
                },
                {
                    "internalType": "address",
                    "name": "",
                    "type": "address"
                }
            ],
            "name": "enabledPlugins",
            "outputs": [
                {
                    "internalType": "uint8",
                    "name": "permissions",
                    "type": "uint8"
                },
                {
                    "internalType": "address",
                    "name": "nextPluginPointer",
                    "type": "address"
                }
            ],
            "stateMutability": "view",
            "type": "function"
        },
        {
            "inputs": [
                {
                    "internalType": "address",
                    "name": "account",
                    "type": "address"
                },
                {
                    "components": [
                        {
                            "components": [
                                {
                                    "internalType": "address payable",
                                    "name": "to",
                                    "type": "address"
                                },
                                {
                                    "internalType": "uint256",
                                    "name": "value",
                                    "type": "uint256"
                                },
                                {
                                    "internalType": "bytes",
                                    "name": "data",
                                    "type": "bytes"
                                }
                            ],
                            "internalType": "struct SafeProtocolAction",
                            "name": "action",
                            "type": "tuple"
                        },
                        {
                            "internalType": "uint256",
                            "name": "nonce",
                            "type": "uint256"
                        },
                        {
                            "internalType": "bytes32",
                            "name": "metadataHash",
                            "type": "bytes32"
                        }
                    ],
                    "internalType": "struct SafeRootAccess",
                    "name": "rootAccess",
                    "type": "tuple"
                }
            ],
            "name": "executeRootAccess",
            "outputs": [
                {
                    "internalType": "bytes",
                    "name": "data",
                    "type": "bytes"
                }
            ],
            "stateMutability": "nonpayable",
            "type": "function"
        },
        {
            "inputs": [
                {
                    "internalType": "address",
                    "name": "account",
                    "type": "address"
                },
                {
                    "components": [
                        {
                            "components": [
                                {
                                    "internalType": "address payable",
                                    "name": "to",
                                    "type": "address"
                                },
                                {
                                    "internalType": "uint256",
                                    "name": "value",
                                    "type": "uint256"
                                },
                                {
                                    "internalType": "bytes",
                                    "name": "data",
                                    "type": "bytes"
                                }
                            ],
                            "internalType": "struct SafeProtocolAction[]",
                            "name": "actions",
                            "type": "tuple[]"
                        },
                        {
                            "internalType": "uint256",
                            "name": "nonce",
                            "type": "uint256"
                        },
                        {
                            "internalType": "bytes32",
                            "name": "metadataHash",
                            "type": "bytes32"
                        }
                    ],
                    "internalType": "struct SafeTransaction",
                    "name": "transaction",
                    "type": "tuple"
                }
            ],
            "name": "executeTransaction",
            "outputs": [
                {
                    "internalType": "bytes[]",
                    "name": "data",
                    "type": "bytes[]"
                }
            ],
            "stateMutability": "nonpayable",
            "type": "function"
        },
        {
            "inputs": [
                {
                    "internalType": "address",
                    "name": "",
                    "type": "address"
                },
                {
                    "internalType": "bytes4",
                    "name": "",
                    "type": "bytes4"
                }
            ],
            "name": "functionHandlers",
            "outputs": [
                {
                    "internalType": "address",
                    "name": "",
                    "type": "address"
                }
            ],
            "stateMutability": "view",
            "type": "function"
        },
        {
            "inputs": [
                {
                    "internalType": "address",
                    "name": "account",
                    "type": "address"
                }
            ],
            "name": "getEnabledHooks",
            "outputs": [
                {
                    "internalType": "address",
                    "name": "hooksAddress",
                    "type": "address"
                }
            ],
            "stateMutability": "view",
            "type": "function"
        },
        {
            "inputs": [
                {
                    "internalType": "address",
                    "name": "account",
                    "type": "address"
                },
                {
                    "internalType": "bytes4",
                    "name": "selector",
                    "type": "bytes4"
                }
            ],
            "name": "getFunctionHandler",
            "outputs": [
                {
                    "internalType": "address",
                    "name": "functionHandler",
                    "type": "address"
                }
            ],
            "stateMutability": "view",
            "type": "function"
        },
        {
            "inputs": [
                {
                    "internalType": "address",
                    "name": "account",
                    "type": "address"
                },
                {
                    "internalType": "address",
                    "name": "plugin",
                    "type": "address"
                }
            ],
            "name": "getPluginInfo",
            "outputs": [
                {
                    "components": [
                        {
                            "internalType": "uint8",
                            "name": "permissions",
                            "type": "uint8"
                        },
                        {
                            "internalType": "address",
                            "name": "nextPluginPointer",
                            "type": "address"
                        }
                    ],
                    "internalType": "struct SafeProtocolManager.PluginAccessInfo",
                    "name": "enabled",
                    "type": "tuple"
                }
            ],
            "stateMutability": "view",
            "type": "function"
        },
        {
            "inputs": [
                {
                    "internalType": "address",
                    "name": "start",
                    "type": "address"
                },
                {
                    "internalType": "uint256",
                    "name": "pageSize",
                    "type": "uint256"
                },
                {
                    "internalType": "address",
                    "name": "account",
                    "type": "address"
                }
            ],
            "name": "getPluginsPaginated",
            "outputs": [
                {
                    "internalType": "address[]",
                    "name": "array",
                    "type": "address[]"
                },
                {
                    "internalType": "address",
                    "name": "next",
                    "type": "address"
                }
            ],
            "stateMutability": "view",
            "type": "function"
        },
        {
            "inputs": [
                {
                    "internalType": "address",
                    "name": "account",
                    "type": "address"
                },
                {
                    "internalType": "address",
                    "name": "plugin",
                    "type": "address"
                }
            ],
            "name": "isPluginEnabled",
            "outputs": [
                {
                    "internalType": "bool",
                    "name": "",
                    "type": "bool"
                }
            ],
            "stateMutability": "view",
            "type": "function"
        },
        {
            "inputs": [],
            "name": "owner",
            "outputs": [
                {
                    "internalType": "address",
                    "name": "",
                    "type": "address"
                }
            ],
            "stateMutability": "view",
            "type": "function"
        },
        {
            "inputs": [],
            "name": "pendingOwner",
            "outputs": [
                {
                    "internalType": "address",
                    "name": "",
                    "type": "address"
                }
            ],
            "stateMutability": "view",
            "type": "function"
        },
        {
            "inputs": [],
            "name": "registry",
            "outputs": [
                {
                    "internalType": "address",
                    "name": "",
                    "type": "address"
                }
            ],
            "stateMutability": "view",
            "type": "function"
        },
        {
            "inputs": [],
            "name": "renounceOwnership",
            "outputs": [],
            "stateMutability": "nonpayable",
            "type": "function"
        },
        {
            "inputs": [
                {
                    "internalType": "bytes4",
                    "name": "selector",
                    "type": "bytes4"
                },
                {
                    "internalType": "address",
                    "name": "functionHandler",
                    "type": "address"
                }
            ],
            "name": "setFunctionHandler",
            "outputs": [],
            "stateMutability": "nonpayable",
            "type": "function"
        },
        {
            "inputs": [
                {
                    "internalType": "address",
                    "name": "hooks",
                    "type": "address"
                }
            ],
            "name": "setHooks",
            "outputs": [],
            "stateMutability": "nonpayable",
            "type": "function"
        },
        {
            "inputs": [
                {
                    "internalType": "address",
                    "name": "newRegistry",
                    "type": "address"
                }
            ],
            "name": "setRegistry",
            "outputs": [],
            "stateMutability": "nonpayable",
            "type": "function"
        },
        {
            "inputs": [
                {
                    "internalType": "bytes4",
                    "name": "interfaceId",
                    "type": "bytes4"
                }
            ],
            "name": "supportsInterface",
            "outputs": [
                {
                    "internalType": "bool",
                    "name": "",
                    "type": "bool"
                }
            ],
            "stateMutability": "view",
            "type": "function"
        },
        {
            "inputs": [
                {
                    "internalType": "address",
                    "name": "",
                    "type": "address"
                }
            ],
            "name": "tempHooksData",
            "outputs": [
                {
                    "internalType": "address",
                    "name": "hooksAddress",
                    "type": "address"
                },
                {
                    "internalType": "bytes",
                    "name": "preCheckData",
                    "type": "bytes"
                }
            ],
            "stateMutability": "view",
            "type": "function"
        },
        {
            "inputs": [
                {
                    "internalType": "address",
                    "name": "newOwner",
                    "type": "address"
                }
            ],
            "name": "transferOwnership",
            "outputs": [],
            "stateMutability": "nonpayable",
            "type": "function"
        }
    ],
    "bytecode": "0x60806040523480156200001157600080fd5b50604051620062533803806200625383398181016040528101906200003791906200030c565b8082620000596200004d6200019860201b60201c565b620001a060201b60201c565b6200006a81620001a060201b60201c565b8173ffffffffffffffffffffffffffffffffffffffff166301ffc9a77f253bd7b7000000000000000000000000000000000000000000000000000000006040518263ffffffff1660e01b8152600401620000c5919062000390565b602060405180830381865afa158015620000e3573d6000803e3d6000fd5b505050506040513d601f19601f82011682018060405250810190620001099190620003ea565b6200014d57816040517f24ea21a70000000000000000000000000000000000000000000000000000000081526004016200014491906200042d565b60405180910390fd5b81600260006101000a81548173ffffffffffffffffffffffffffffffffffffffff021916908373ffffffffffffffffffffffffffffffffffffffff160217905550505050506200044a565b600033905090565b600160006101000a81549073ffffffffffffffffffffffffffffffffffffffff0219169055620001db81620001de60201b620034ff1760201c565b50565b60008060009054906101000a900473ffffffffffffffffffffffffffffffffffffffff169050816000806101000a81548173ffffffffffffffffffffffffffffffffffffffff021916908373ffffffffffffffffffffffffffffffffffffffff1602179055508173ffffffffffffffffffffffffffffffffffffffff168173ffffffffffffffffffffffffffffffffffffffff167f8be0079c531659141344cd1fd0a4f28419497f9722a3daafe3b4186f6b6457e060405160405180910390a35050565b600080fd5b600073ffffffffffffffffffffffffffffffffffffffff82169050919050565b6000620002d482620002a7565b9050919050565b620002e681620002c7565b8114620002f257600080fd5b50565b6000815190506200030681620002db565b92915050565b60008060408385031215620003265762000325620002a2565b5b60006200033685828601620002f5565b92505060206200034985828601620002f5565b9150509250929050565b60007fffffffff0000000000000000000000000000000000000000000000000000000082169050919050565b6200038a8162000353565b82525050565b6000602082019050620003a760008301846200037f565b92915050565b60008115159050919050565b620003c481620003ad565b8114620003d057600080fd5b50565b600081519050620003e481620003b9565b92915050565b600060208284031215620004035762000402620002a2565b5b60006200041384828501620003d3565b91505092915050565b6200042781620002c7565b82525050565b60006020820190506200044460008301846200041c565b92915050565b615df9806200045a6000396000f3fe608060405234801561001057600080fd5b50600436106101925760003560e01c80637b103999116100de578063c703895c11610097578063df5236e111610071578063df5236e1146106eb578063e30c397814610707578063f2fde38b14610725578063fb63daa11461074157610193565b8063c703895c1461065b578063cccd78321461068b578063d3ac5669146106bb57610193565b80637b1039991461058757806380479c34146105a55780638da5cb5b146105d557806393271368146105f3578063a0673f5c1461060f578063a91ee0dc1461063f57610193565b806330f571f91161014b578063715018a611610125578063715018a614610527578063728c29721461053157806375f0bb521461056157806379ba50971461057d57610193565b806330f571f9146104955780633550b344146104c5578063384ee8a4146104f657610193565b806301ffc9a71461039c5780630d7e358e146103cc5780630f991915146103e85780631ea24616146104185780631f026c91146104345780631f09a4351461046557610193565b5b6000366060600033905060008036906101ac9190613c1f565b90506000600560008473ffffffffffffffffffffffffffffffffffffffff1673ffffffffffffffffffffffffffffffffffffffff1681526020019081526020016000206000837bffffffffffffffffffffffffffffffffffffffffffffffffffffffff19167bffffffffffffffffffffffffffffffffffffffffffffffffffffffff1916815260200190815260200160002060009054906101000a900473ffffffffffffffffffffffffffffffffffffffff169050600073ffffffffffffffffffffffffffffffffffffffff168173ffffffffffffffffffffffffffffffffffffffff16036102d45782826040517f7ad978a30000000000000000000000000000000000000000000000000000000081526004016102cb929190613cce565b60405180910390fd5b6000601436033560601c90508173ffffffffffffffffffffffffffffffffffffffff166325d6803f858360008036600090601460003690506103169190613d30565b9261032393929190613d78565b6040518663ffffffff1660e01b8152600401610343959493929190613e56565b6000604051808303816000875af1158015610362573d6000803e3d6000fd5b505050506040513d6000823e3d601f19601f8201168201806040525081019061038b9190613ffe565b945050505050915050805190602001f35b6103b660048036038101906103b19190614073565b61075d565b6040516103c391906140bb565b60405180910390f35b6103e660048036038101906103e19190614102565b61088f565b005b61040260048036038101906103fd9190614166565b610afd565b60405161040f91906142d9565b60405180910390f35b610432600480360381019061042d9190614334565b611012565b005b61044e60048036038101906104499190614374565b611538565b60405161045c9291906143c3565b60405180910390f35b61047f600480360381019061047a91906143ec565b611596565b60405161048c919061442c565b60405180910390f35b6104af60048036038101906104aa9190614466565b61164f565b6040516104bc91906144fb565b60405180910390f35b6104df60048036038101906104da9190614549565b6119ac565b6040516104ed92919061465a565b60405180910390f35b610510600480360381019061050b919061468a565b611d5e565b60405161051e9291906146b7565b60405180910390f35b61052f611e2a565b005b61054b6004803603810190610546919061477c565b611e3e565b604051610558919061482c565b60405180910390f35b61057b60048036038101906105769190614885565b6122a5565b005b610585612772565b005b61058f6127ff565b60405161059c919061442c565b60405180910390f35b6105bf60048036038101906105ba919061468a565b612825565b6040516105cc919061442c565b60405180910390f35b6105dd612858565b6040516105ea919061442c565b60405180910390f35b61060d60048036038101906106089190614a09565b612881565b005b61062960048036038101906106249190614374565b612ab9565b60405161063691906140bb565b60405180910390f35b6106596004803603810190610654919061468a565b612bcc565b005b6106756004803603810190610670919061468a565b612d77565b604051610682919061442c565b60405180910390f35b6106a560048036038101906106a091906143ec565b612de0565b6040516106b2919061442c565b60405180910390f35b6106d560048036038101906106d09190614374565b612e22565b6040516106e29190614a87565b60405180910390f35b61070560048036038101906107009190614374565b612f2c565b005b61070f61322a565b60405161071c919061442c565b60405180910390f35b61073f600480360381019061073a919061468a565b613254565b005b61075b6004803603810190610756919061468a565b613301565b005b600063945b814860e01b827bffffffffffffffffffffffffffffffffffffffffffffffffffffffff191614806107b8575063e6d7a83a60e01b827bffffffffffffffffffffffffffffffffffffffffffffffffffffffff1916145b8061082057507f3f6c68ec000000000000000000000000000000000000000000000000000000007bffffffffffffffffffffffffffffffffffffffffffffffffffffffff1916827bffffffffffffffffffffffffffffffffffffffffffffffffffffffff1916145b8061088857507f01ffc9a7000000000000000000000000000000000000000000000000000000007bffffffffffffffffffffffffffffffffffffffffffffffffffffffff1916827bffffffffffffffffffffffffffffffffffffffffffffffffffffffff1916145b9050919050565b6108976135c3565b600073ffffffffffffffffffffffffffffffffffffffff168173ffffffffffffffffffffffffffffffffffffffff16146109b2576108d6816002613681565b8073ffffffffffffffffffffffffffffffffffffffff166301ffc9a77ff601ad15000000000000000000000000000000000000000000000000000000006040518263ffffffff1660e01b815260040161092f9190614aa2565b602060405180830381865afa15801561094c573d6000803e3d6000fd5b505050506040513d601f19601f820116820180604052508101906109709190614ad2565b6109b157806040517f24ea21a70000000000000000000000000000000000000000000000000000000081526004016109a8919061442c565b60405180910390fd5b5b80600560003373ffffffffffffffffffffffffffffffffffffffff1673ffffffffffffffffffffffffffffffffffffffff1681526020019081526020016000206000847bffffffffffffffffffffffffffffffffffffffffffffffffffffffff19167bffffffffffffffffffffffffffffffffffffffffffffffffffffffff1916815260200190815260200160002060006101000a81548173ffffffffffffffffffffffffffffffffffffffff021916908373ffffffffffffffffffffffffffffffffffffffff1602179055508073ffffffffffffffffffffffffffffffffffffffff16827bffffffffffffffffffffffffffffffffffffffffffffffffffffffff19163373ffffffffffffffffffffffffffffffffffffffff167f31bef286390c4a9ba9b02b42210052c74ed84ea939c9ee4508f7ad380051c31860405160405180910390a45050565b606082610b098161379d565b336001610b168282613681565b6000600360008873ffffffffffffffffffffffffffffffffffffffff1673ffffffffffffffffffffffffffffffffffffffff16815260200190815260200160002060009054906101000a900473ffffffffffffffffffffffffffffffffffffffff16905060008073ffffffffffffffffffffffffffffffffffffffff168273ffffffffffffffffffffffffffffffffffffffff161415905060608115610c60578273ffffffffffffffffffffffffffffffffffffffff1663176ae7b78a8a600133604051602001610be7919061442c565b6040516020818303038152906040526040518563ffffffff1660e01b8152600401610c159493929190614e5a565b6000604051808303816000875af1158015610c34573d6000803e3d6000fd5b505050506040513d6000823e3d601f19601f82011682018060405250810190610c5d9190613ffe565b90505b878060000190610c709190614ebc565b905067ffffffffffffffff811115610c8b57610c8a613eb8565b5b604051908082528060200260200182016040528015610cbe57816020015b6060815260200190600190039081610ca95790505b5096506000888060000190610cd39190614ebc565b9050905060005b81811015610f3557368a8060000190610cf39190614ebc565b83818110610d0457610d03614f1f565b5b9050602002810190610d169190614f4e565b90503073ffffffffffffffffffffffffffffffffffffffff16816000016020810190610d429190614f76565b73ffffffffffffffffffffffffffffffffffffffff1603610da2578b8b60400135836040517fe37e72ed000000000000000000000000000000000000000000000000000000008152600401610d9993929190614fb2565b60405180910390fd5b8b73ffffffffffffffffffffffffffffffffffffffff16816000016020810190610dcc9190614f76565b73ffffffffffffffffffffffffffffffffffffffff1603610df757610df28c60026138b0565b610e03565b610e028c60016138b0565b5b6000808d73ffffffffffffffffffffffffffffffffffffffff16635229073f846000016020810190610e359190614f76565b8560200135868060400190610e4a9190614fe9565b60016040518663ffffffff1660e01b8152600401610e6c959493929190615118565b6000604051808303816000875af1158015610e8b573d6000803e3d6000fd5b505050506040513d6000823e3d601f19601f82011682018060405250810190610eb49190615166565b9150915081610f02578d8d60400135856040517f65cba8d4000000000000000000000000000000000000000000000000000000008152600401610ef993929190614fb2565b60405180910390fd5b808c8581518110610f1657610f15614f1f565b5b602002602001018190525050505080610f2e906151c2565b9050610cda565b508215610fad578373ffffffffffffffffffffffffffffffffffffffff1663f44d4ca38b6001856040518463ffffffff1660e01b8152600401610f7a9392919061520a565b600060405180830381600087803b158015610f9457600080fd5b505af1158015610fa8573d6000803e3d6000fd5b505050505b8973ffffffffffffffffffffffffffffffffffffffff167fedcb3ca706897f189363c9f878c558b9b366bd39ce4727d8b9bfcef113be05df8a604001358b60200135604051610ffd929190615248565b60405180910390a25050505050505092915050565b8161101c81613a0e565b8260016110298282613681565b6110316135c3565b8473ffffffffffffffffffffffffffffffffffffffff166301ffc9a77f6930ebcc000000000000000000000000000000000000000000000000000000006040518263ffffffff1660e01b815260040161108a9190614aa2565b602060405180830381865afa1580156110a7573d6000803e3d6000fd5b505050506040513d601f19601f820116820180604052508101906110cb9190614ad2565b61110c57846040517f24ea21a7000000000000000000000000000000000000000000000000000000008152600401611103919061442c565b60405180910390fd5b6000600660003373ffffffffffffffffffffffffffffffffffffffff1673ffffffffffffffffffffffffffffffffffffffff1681526020019081526020016000206000600173ffffffffffffffffffffffffffffffffffffffff1673ffffffffffffffffffffffffffffffffffffffff16815260200190815260200160002090506000600660003373ffffffffffffffffffffffffffffffffffffffff1673ffffffffffffffffffffffffffffffffffffffff16815260200190815260200160002060008873ffffffffffffffffffffffffffffffffffffffff1673ffffffffffffffffffffffffffffffffffffffff1681526020019081526020016000209050600073ffffffffffffffffffffffffffffffffffffffff168160000160019054906101000a900473ffffffffffffffffffffffffffffffffffffffff1673ffffffffffffffffffffffffffffffffffffffff16146112a45733876040517f0ed7370f00000000000000000000000000000000000000000000000000000000815260040161129b929190615271565b60405180910390fd5b60008773ffffffffffffffffffffffffffffffffffffffff1663e8e755b56040518163ffffffff1660e01b8152600401602060405180830381865afa1580156112f1573d6000803e3d6000fd5b505050506040513d601f19601f8201168201806040525081019061131591906152af565b90508060ff168760ff1614611365578781886040517fc752c04b00000000000000000000000000000000000000000000000000000000815260040161135c939291906152dc565b60405180910390fd5b600073ffffffffffffffffffffffffffffffffffffffff168360000160019054906101000a900473ffffffffffffffffffffffffffffffffffffffff1673ffffffffffffffffffffffffffffffffffffffff16036114025760018360000160016101000a81548173ffffffffffffffffffffffffffffffffffffffff021916908373ffffffffffffffffffffffffffffffffffffffff1602179055505b8260000160019054906101000a900473ffffffffffffffffffffffffffffffffffffffff168260000160016101000a81548173ffffffffffffffffffffffffffffffffffffffff021916908373ffffffffffffffffffffffffffffffffffffffff160217905550868260000160006101000a81548160ff021916908360ff160217905550878360000160016101000a81548173ffffffffffffffffffffffffffffffffffffffff021916908373ffffffffffffffffffffffffffffffffffffffff1602179055508773ffffffffffffffffffffffffffffffffffffffff163373ffffffffffffffffffffffffffffffffffffffff167f61fb70687f5b7cae1207b6abec96e5beb7971681e5e36de31585fbfa94a8c34c896040516115269190615313565b60405180910390a35050505050505050565b6006602052816000526040600020602052806000526040600020600091509150508060000160009054906101000a900460ff16908060000160019054906101000a900473ffffffffffffffffffffffffffffffffffffffff16905082565b6000600560008473ffffffffffffffffffffffffffffffffffffffff1673ffffffffffffffffffffffffffffffffffffffff1681526020019081526020016000206000837bffffffffffffffffffffffffffffffffffffffffffffffffffffffff19167bffffffffffffffffffffffffffffffffffffffffffffffffffffffff1916815260200190815260200160002060009054906101000a900473ffffffffffffffffffffffffffffffffffffffff16905092915050565b60608261165b8161379d565b3360016116688282613681565b368580600001906116799190614f4e565b90506000600360008973ffffffffffffffffffffffffffffffffffffffff1673ffffffffffffffffffffffffffffffffffffffff16815260200190815260200160002060009054906101000a900473ffffffffffffffffffffffffffffffffffffffff16905060008073ffffffffffffffffffffffffffffffffffffffff168273ffffffffffffffffffffffffffffffffffffffff1614159050606081156117c5578273ffffffffffffffffffffffffffffffffffffffff16637359b7428b8b60013360405160200161174c919061442c565b6040516020818303038152906040526040518563ffffffff1660e01b815260040161177a9493929190615396565b6000604051808303816000875af1158015611799573d6000803e3d6000fd5b505050506040513d6000823e3d601f19601f820116820180604052508101906117c29190613ffe565b90505b6117d08a60046138b0565b60008a73ffffffffffffffffffffffffffffffffffffffff16635229073f8660000160208101906118019190614f76565b87602001358880604001906118169190614fe9565b60006040518663ffffffff1660e01b8152600401611838959493929190615118565b6000604051808303816000875af1158015611857573d6000803e3d6000fd5b505050506040513d6000823e3d601f19601f820116820180604052508101906118809190615166565b809a50819250505082156118fe578373ffffffffffffffffffffffffffffffffffffffff1663f44d4ca38c83856040518463ffffffff1660e01b81526004016118cb9392919061520a565b600060405180830381600087803b1580156118e557600080fd5b505af11580156118f9573d6000803e3d6000fd5b505050505b801561195b578a73ffffffffffffffffffffffffffffffffffffffff167f3afb8eada8f22d02ff94fbd523237fb70aa7e6b51ab68cbbe94a055de96479af8b6040013560405161194e919061482c565b60405180910390a261199e565b8a8a604001356040517f82cc9f490000000000000000000000000000000000000000000000000000000081526004016119959291906153e9565b60405180910390fd5b505050505050505092915050565b606060008084036119e9576040517f6731d75200000000000000000000000000000000000000000000000000000000815260040160405180910390fd5b600173ffffffffffffffffffffffffffffffffffffffff168573ffffffffffffffffffffffffffffffffffffffff161480611a2a5750611a298386612ab9565b5b611a6b57846040517fc467af06000000000000000000000000000000000000000000000000000000008152600401611a62919061442c565b60405180910390fd5b8367ffffffffffffffff811115611a8557611a84613eb8565b5b604051908082528060200260200182016040528015611ab35781602001602082028036833780820191505090505b5091506000600660008573ffffffffffffffffffffffffffffffffffffffff1673ffffffffffffffffffffffffffffffffffffffff16815260200190815260200160002060008773ffffffffffffffffffffffffffffffffffffffff1673ffffffffffffffffffffffffffffffffffffffff16815260200190815260200160002060000160019054906101000a900473ffffffffffffffffffffffffffffffffffffffff1691505b600073ffffffffffffffffffffffffffffffffffffffff168273ffffffffffffffffffffffffffffffffffffffff1614158015611bc55750600173ffffffffffffffffffffffffffffffffffffffff168273ffffffffffffffffffffffffffffffffffffffff1614155b8015611bd057508481105b15611cd85781838281518110611be957611be8614f1f565b5b602002602001019073ffffffffffffffffffffffffffffffffffffffff16908173ffffffffffffffffffffffffffffffffffffffff1681525050600660008573ffffffffffffffffffffffffffffffffffffffff1673ffffffffffffffffffffffffffffffffffffffff16815260200190815260200160002060008373ffffffffffffffffffffffffffffffffffffffff1673ffffffffffffffffffffffffffffffffffffffff16815260200190815260200160002060000160019054906101000a900473ffffffffffffffffffffffffffffffffffffffff1691508080611cd0906151c2565b915050611b5b565b60008103611ce557600191505b600173ffffffffffffffffffffffffffffffffffffffff168273ffffffffffffffffffffffffffffffffffffffff1614158015611d23575060008114155b15611d525782600182611d369190613d30565b81518110611d4757611d46614f1f565b5b602002602001015191505b80835250935093915050565b60046020528060005260406000206000915090508060000160009054906101000a900473ffffffffffffffffffffffffffffffffffffffff1690806001018054611da790615441565b80601f0160208091040260200160405190810160405280929190818152602001828054611dd390615441565b8015611e205780601f10611df557610100808354040283529160200191611e20565b820191906000526020600020905b815481529060010190602001808311611e0357829003601f168201915b5050505050905082565b611e32613aba565b611e3c6000613b38565b565b6000600360003373ffffffffffffffffffffffffffffffffffffffff1673ffffffffffffffffffffffffffffffffffffffff16815260200190815260200160002060009054906101000a900473ffffffffffffffffffffffffffffffffffffffff16600460003373ffffffffffffffffffffffffffffffffffffffff1673ffffffffffffffffffffffffffffffffffffffff16815260200190815260200160002060000160006101000a81548173ffffffffffffffffffffffffffffffffffffffff021916908373ffffffffffffffffffffffffffffffffffffffff1602179055506000600360003373ffffffffffffffffffffffffffffffffffffffff1673ffffffffffffffffffffffffffffffffffffffff16815260200190815260200160002060009054906101000a900473ffffffffffffffffffffffffffffffffffffffff1690508686868686604051602001611f9d959493929190615472565b604051602081830303815290604052805190602001209150600073ffffffffffffffffffffffffffffffffffffffff168173ffffffffffffffffffffffffffffffffffffffff1603611fef575061229c565b600180811115612002576120016150a1565b5b846001811115612015576120146150a1565b5b03612196576000600167ffffffffffffffff81111561203757612036613eb8565b5b60405190808252806020026020018201604052801561207057816020015b61205d613b71565b8152602001906001900390816120555790505b50905060405180606001604052808973ffffffffffffffffffffffffffffffffffffffff16815260200188815260200187815250816000815181106120b8576120b7614f1f565b5b60200260200101819052506000604051806060016040528083815260200160008152602001600080191681525090508273ffffffffffffffffffffffffffffffffffffffff1663176ae7b73383600189604051602001612118919061442c565b6040516020818303038152906040526040518563ffffffff1660e01b8152600401612146949392919061561d565b6000604051808303816000875af1158015612165573d6000803e3d6000fd5b505050506040513d6000823e3d601f19601f8201168201806040525081019061218e9190613ffe565b50505061229a565b600060405180606001604052808973ffffffffffffffffffffffffffffffffffffffff1681526020018881526020018781525090506000604051806060016040528083815260200160008152602001600080191681525090508273ffffffffffffffffffffffffffffffffffffffff16637359b7423383600189604051602001612220919061442c565b6040516020818303038152906040526040518563ffffffff1660e01b815260040161224e94939291906156c0565b6000604051808303816000875af115801561226d573d6000803e3d6000fd5b505050506040513d6000823e3d601f19601f820116820180604052508101906122969190613ffe565b5050505b505b95945050505050565b600360003373ffffffffffffffffffffffffffffffffffffffff1673ffffffffffffffffffffffffffffffffffffffff16815260200190815260200160002060009054906101000a900473ffffffffffffffffffffffffffffffffffffffff16600460003373ffffffffffffffffffffffffffffffffffffffff1673ffffffffffffffffffffffffffffffffffffffff16815260200190815260200160002060000160006101000a81548173ffffffffffffffffffffffffffffffffffffffff021916908373ffffffffffffffffffffffffffffffffffffffff1602179055506000600360003373ffffffffffffffffffffffffffffffffffffffff1673ffffffffffffffffffffffffffffffffffffffff16815260200190815260200160002060009054906101000a900473ffffffffffffffffffffffffffffffffffffffff169050600073ffffffffffffffffffffffffffffffffffffffff168173ffffffffffffffffffffffffffffffffffffffff16036124235750612765565b60008c8c8c8b8b8b8b8b8b8b6040516020016124489a99989796959493929190615722565b604051602081830303815290604052905060018081111561246c5761246b6150a1565b5b8a600181111561247f5761247e6150a1565b5b0361262f576000600167ffffffffffffffff8111156124a1576124a0613eb8565b5b6040519080825280602002602001820160405280156124da57816020015b6124c7613b71565b8152602001906001900390816124bf5790505b50905060405180606001604052808f73ffffffffffffffffffffffffffffffffffffffff1681526020018e81526020018d8152508160008151811061252257612521614f1f565b5b60200260200101819052506000604051806060016040528083815260200160008152602001600080191681525090508373ffffffffffffffffffffffffffffffffffffffff1663176ae7b733836000876040518563ffffffff1660e01b815260040161259194939291906157cc565b6000604051808303816000875af11580156125b0573d6000803e3d6000fd5b505050506040513d6000823e3d601f19601f820116820180604052508101906125d99190613ffe565b600460003373ffffffffffffffffffffffffffffffffffffffff1673ffffffffffffffffffffffffffffffffffffffff168152602001908152602001600020600101908161262791906159b4565b505050612762565b600060405180606001604052808f73ffffffffffffffffffffffffffffffffffffffff1681526020018e81526020018d81525090506000604051806060016040528083815260200160008152602001600080191681525090508373ffffffffffffffffffffffffffffffffffffffff16637359b74233836000876040518563ffffffff1660e01b81526004016126c89493929190615a86565b6000604051808303816000875af11580156126e7573d6000803e3d6000fd5b505050506040513d6000823e3d601f19601f820116820180604052508101906127109190613ffe565b600460003373ffffffffffffffffffffffffffffffffffffffff1673ffffffffffffffffffffffffffffffffffffffff168152602001908152602001600020600101908161275e91906159b4565b5050505b50505b5050505050505050505050565b600061277c613b69565b90508073ffffffffffffffffffffffffffffffffffffffff1661279d61322a565b73ffffffffffffffffffffffffffffffffffffffff16146127f3576040517f08c379a00000000000000000000000000000000000000000000000000000000081526004016127ea90615b5c565b60405180910390fd5b6127fc81613b38565b50565b600260009054906101000a900473ffffffffffffffffffffffffffffffffffffffff1681565b60036020528060005260406000206000915054906101000a900473ffffffffffffffffffffffffffffffffffffffff1681565b60008060009054906101000a900473ffffffffffffffffffffffffffffffffffffffff16905090565b6000600460003373ffffffffffffffffffffffffffffffffffffffff1673ffffffffffffffffffffffffffffffffffffffff16815260200190815260200160002060000160009054906101000a900473ffffffffffffffffffffffffffffffffffffffff169050600073ffffffffffffffffffffffffffffffffffffffff168173ffffffffffffffffffffffffffffffffffffffff16036129225750612ab5565b8073ffffffffffffffffffffffffffffffffffffffff1663f44d4ca33384600460003373ffffffffffffffffffffffffffffffffffffffff1673ffffffffffffffffffffffffffffffffffffffff1681526020019081526020016000206001016040518463ffffffff1660e01b81526004016129a093929190615c00565b600060405180830381600087803b1580156129ba57600080fd5b505af11580156129ce573d6000803e3d6000fd5b505050506000600460003373ffffffffffffffffffffffffffffffffffffffff1673ffffffffffffffffffffffffffffffffffffffff16815260200190815260200160002060000160006101000a81548173ffffffffffffffffffffffffffffffffffffffff021916908373ffffffffffffffffffffffffffffffffffffffff16021790555060405180602001604052806000815250600460003373ffffffffffffffffffffffffffffffffffffffff1673ffffffffffffffffffffffffffffffffffffffff1681526020019081526020016000206001019081612ab291906159b4565b50505b5050565b60008173ffffffffffffffffffffffffffffffffffffffff16600173ffffffffffffffffffffffffffffffffffffffff1614158015612bc45750600073ffffffffffffffffffffffffffffffffffffffff16600660008573ffffffffffffffffffffffffffffffffffffffff1673ffffffffffffffffffffffffffffffffffffffff16815260200190815260200160002060008473ffffffffffffffffffffffffffffffffffffffff1673ffffffffffffffffffffffffffffffffffffffff16815260200190815260200160002060000160019054906101000a900473ffffffffffffffffffffffffffffffffffffffff1673ffffffffffffffffffffffffffffffffffffffff1614155b905092915050565b612bd4613aba565b612bdc6135c3565b8073ffffffffffffffffffffffffffffffffffffffff166301ffc9a77f253bd7b7000000000000000000000000000000000000000000000000000000006040518263ffffffff1660e01b8152600401612c359190614aa2565b602060405180830381865afa158015612c52573d6000803e3d6000fd5b505050506040513d601f19601f82011682018060405250810190612c769190614ad2565b612cb757806040517f24ea21a7000000000000000000000000000000000000000000000000000000008152600401612cae919061442c565b60405180910390fd5b8073ffffffffffffffffffffffffffffffffffffffff16600260009054906101000a900473ffffffffffffffffffffffffffffffffffffffff1673ffffffffffffffffffffffffffffffffffffffff167f4803049971913703d2dd43c06110dc7fad451e4603e9f485cbeebdda11263ab060405160405180910390a380600260006101000a81548173ffffffffffffffffffffffffffffffffffffffff021916908373ffffffffffffffffffffffffffffffffffffffff16021790555050565b6000600360008373ffffffffffffffffffffffffffffffffffffffff1673ffffffffffffffffffffffffffffffffffffffff16815260200190815260200160002060009054906101000a900473ffffffffffffffffffffffffffffffffffffffff169050919050565b60056020528160005260406000206020528060005260406000206000915091509054906101000a900473ffffffffffffffffffffffffffffffffffffffff1681565b612e2a613ba8565b600660008473ffffffffffffffffffffffffffffffffffffffff1673ffffffffffffffffffffffffffffffffffffffff16815260200190815260200160002060008373ffffffffffffffffffffffffffffffffffffffff1673ffffffffffffffffffffffffffffffffffffffff1681526020019081526020016000206040518060400160405290816000820160009054906101000a900460ff1660ff1660ff1681526020016000820160019054906101000a900473ffffffffffffffffffffffffffffffffffffffff1673ffffffffffffffffffffffffffffffffffffffff1673ffffffffffffffffffffffffffffffffffffffff1681525050905092915050565b80612f3681613a0e565b612f3e6135c3565b6000600660003373ffffffffffffffffffffffffffffffffffffffff1673ffffffffffffffffffffffffffffffffffffffff16815260200190815260200160002060008573ffffffffffffffffffffffffffffffffffffffff1673ffffffffffffffffffffffffffffffffffffffff16815260200190815260200160002090506000600660003373ffffffffffffffffffffffffffffffffffffffff1673ffffffffffffffffffffffffffffffffffffffff16815260200190815260200160002060008573ffffffffffffffffffffffffffffffffffffffff1673ffffffffffffffffffffffffffffffffffffffff16815260200190815260200160002090508373ffffffffffffffffffffffffffffffffffffffff168260000160019054906101000a900473ffffffffffffffffffffffffffffffffffffffff1673ffffffffffffffffffffffffffffffffffffffff16146130d257846040517f9d9207af0000000000000000000000000000000000000000000000000000000081526004016130c9919061442c565b60405180910390fd5b8060000160019054906101000a900473ffffffffffffffffffffffffffffffffffffffff168260000160016101000a81548173ffffffffffffffffffffffffffffffffffffffff021916908373ffffffffffffffffffffffffffffffffffffffff1602179055508060000160009054906101000a900460ff168260000160006101000a81548160ff021916908360ff16021790555060008160000160016101000a81548173ffffffffffffffffffffffffffffffffffffffff021916908373ffffffffffffffffffffffffffffffffffffffff16021790555060008160000160006101000a81548160ff021916908360ff1602179055508373ffffffffffffffffffffffffffffffffffffffff163373ffffffffffffffffffffffffffffffffffffffff167ffef2a54f476dede8e8f6ff5138b92d021b5e287e276e6e84ecbd7d18aed2262760405160405180910390a35050505050565b6000600160009054906101000a900473ffffffffffffffffffffffffffffffffffffffff16905090565b61325c613aba565b80600160006101000a81548173ffffffffffffffffffffffffffffffffffffffff021916908373ffffffffffffffffffffffffffffffffffffffff1602179055508073ffffffffffffffffffffffffffffffffffffffff166132bc612858565b73ffffffffffffffffffffffffffffffffffffffff167f38d16b8cac22d99fc7c124b9cd0de2d3fa1faef420bfe791d8c362d765e2270060405160405180910390a350565b6133096135c3565b600073ffffffffffffffffffffffffffffffffffffffff168173ffffffffffffffffffffffffffffffffffffffff161461342457613348816004613681565b8073ffffffffffffffffffffffffffffffffffffffff166301ffc9a77f907e1c56000000000000000000000000000000000000000000000000000000006040518263ffffffff1660e01b81526004016133a19190614aa2565b602060405180830381865afa1580156133be573d6000803e3d6000fd5b505050506040513d601f19601f820116820180604052508101906133e29190614ad2565b61342357806040517f24ea21a700000000000000000000000000000000000000000000000000000000815260040161341a919061442c565b60405180910390fd5b5b80600360003373ffffffffffffffffffffffffffffffffffffffff1673ffffffffffffffffffffffffffffffffffffffff16815260200190815260200160002060006101000a81548173ffffffffffffffffffffffffffffffffffffffff021916908373ffffffffffffffffffffffffffffffffffffffff1602179055508073ffffffffffffffffffffffffffffffffffffffff163373ffffffffffffffffffffffffffffffffffffffff167f4bdb0c6d693920823a574df92b20cb20886d27ac1e4e522e48f2e57bb668423b60405160405180910390a350565b60008060009054906101000a900473ffffffffffffffffffffffffffffffffffffffff169050816000806101000a81548173ffffffffffffffffffffffffffffffffffffffff021916908373ffffffffffffffffffffffffffffffffffffffff1602179055508173ffffffffffffffffffffffffffffffffffffffff168173ffffffffffffffffffffffffffffffffffffffff167f8be0079c531659141344cd1fd0a4f28419497f9722a3daafe3b4186f6b6457e060405160405180910390a35050565b601460003690501015613602576040517fca0ad26000000000000000000000000000000000000000000000000000000000815260040160405180910390fd5b6000601436033560601c90503373ffffffffffffffffffffffffffffffffffffffff168173ffffffffffffffffffffffffffffffffffffffff161461367e57806040517f4c14f64c000000000000000000000000000000000000000000000000000000008152600401613675919061442c565b60405180910390fd5b50565b600080600260009054906101000a900473ffffffffffffffffffffffffffffffffffffffff1673ffffffffffffffffffffffffffffffffffffffff1663253bd7b7858560ff1660001b6040518363ffffffff1660e01b81526004016136e79291906153e9565b6040805180830381865afa158015613703573d6000803e3d6000fd5b505050506040513d601f19601f820116820180604052508101906137279190615c7e565b9150915060008267ffffffffffffffff16148061374f575060008167ffffffffffffffff1614155b1561379757838282856040517fcad17e6900000000000000000000000000000000000000000000000000000000815260040161378e9493929190615ccd565b60405180910390fd5b50505050565b600073ffffffffffffffffffffffffffffffffffffffff16600660008373ffffffffffffffffffffffffffffffffffffffff1673ffffffffffffffffffffffffffffffffffffffff16815260200190815260200160002060003373ffffffffffffffffffffffffffffffffffffffff1673ffffffffffffffffffffffffffffffffffffffff16815260200190815260200160002060000160019054906101000a900473ffffffffffffffffffffffffffffffffffffffff1673ffffffffffffffffffffffffffffffffffffffff16036138ad57336040517f3c61b94d0000000000000000000000000000000000000000000000000000000081526004016138a4919061442c565b60405180910390fd5b50565b6000600660008473ffffffffffffffffffffffffffffffffffffffff1673ffffffffffffffffffffffffffffffffffffffff16815260200190815260200160002060003373ffffffffffffffffffffffffffffffffffffffff1673ffffffffffffffffffffffffffffffffffffffff16815260200190815260200160002060000160009054906101000a900460ff16905060003373ffffffffffffffffffffffffffffffffffffffff1663e8e755b56040518163ffffffff1660e01b8152600401602060405180830381865afa15801561398e573d6000803e3d6000fd5b505050506040513d601f19601f820116820180604052508101906139b291906152af565b90508260ff16838383161660ff1614613a0857338184846040517f7295e9360000000000000000000000000000000000000000000000000000000081526004016139ff9493929190615d12565b60405180910390fd5b50505050565b600073ffffffffffffffffffffffffffffffffffffffff168173ffffffffffffffffffffffffffffffffffffffff161480613a755750600173ffffffffffffffffffffffffffffffffffffffff168173ffffffffffffffffffffffffffffffffffffffff16145b15613ab757806040517fc467af06000000000000000000000000000000000000000000000000000000008152600401613aae919061442c565b60405180910390fd5b50565b613ac2613b69565b73ffffffffffffffffffffffffffffffffffffffff16613ae0612858565b73ffffffffffffffffffffffffffffffffffffffff1614613b36576040517f08c379a0000000000000000000000000000000000000000000000000000000008152600401613b2d90615da3565b60405180910390fd5b565b600160006101000a81549073ffffffffffffffffffffffffffffffffffffffff0219169055613b66816134ff565b50565b600033905090565b6040518060600160405280600073ffffffffffffffffffffffffffffffffffffffff16815260200160008152602001606081525090565b6040518060400160405280600060ff168152602001600073ffffffffffffffffffffffffffffffffffffffff1681525090565b600082905092915050565b60007fffffffff0000000000000000000000000000000000000000000000000000000082169050919050565b600082821b905092915050565b6000613c2b8383613bdb565b82613c368135613be6565b92506004821015613c7657613c717fffffffff0000000000000000000000000000000000000000000000000000000083600403600802613c12565b831692505b505092915050565b600073ffffffffffffffffffffffffffffffffffffffff82169050919050565b6000613ca982613c7e565b9050919050565b613cb981613c9e565b82525050565b613cc881613be6565b82525050565b6000604082019050613ce36000830185613cb0565b613cf06020830184613cbf565b9392505050565b6000819050919050565b7f4e487b7100000000000000000000000000000000000000000000000000000000600052601160045260246000fd5b6000613d3b82613cf7565b9150613d4683613cf7565b9250828203905081811115613d5e57613d5d613d01565b5b92915050565b6000604051905090565b600080fd5b600080fd5b60008085851115613d8c57613d8b613d6e565b5b83861115613d9d57613d9c613d73565b5b6001850283019150848603905094509492505050565b6000819050919050565b6000819050919050565b6000613de2613ddd613dd884613db3565b613dbd565b613cf7565b9050919050565b613df281613dc7565b82525050565b600082825260208201905092915050565b82818337600083830152505050565b6000601f19601f8301169050919050565b6000613e358385613df8565b9350613e42838584613e09565b613e4b83613e18565b840190509392505050565b6000608082019050613e6b6000830188613cb0565b613e786020830187613cb0565b613e856040830186613de9565b8181036060830152613e98818486613e29565b90509695505050505050565b600080fd5b600080fd5b600080fd5b600080fd5b7f4e487b7100000000000000000000000000000000000000000000000000000000600052604160045260246000fd5b613ef082613e18565b810181811067ffffffffffffffff82111715613f0f57613f0e613eb8565b5b80604052505050565b6000613f22613d64565b9050613f2e8282613ee7565b919050565b600067ffffffffffffffff821115613f4e57613f4d613eb8565b5b613f5782613e18565b9050602081019050919050565b60005b83811015613f82578082015181840152602081019050613f67565b60008484015250505050565b6000613fa1613f9c84613f33565b613f18565b905082815260208101848484011115613fbd57613fbc613eb3565b5b613fc8848285613f64565b509392505050565b600082601f830112613fe557613fe4613eae565b5b8151613ff5848260208601613f8e565b91505092915050565b60006020828403121561401457614013613ea4565b5b600082015167ffffffffffffffff81111561403257614031613ea9565b5b61403e84828501613fd0565b91505092915050565b61405081613be6565b811461405b57600080fd5b50565b60008135905061406d81614047565b92915050565b60006020828403121561408957614088613ea4565b5b60006140978482850161405e565b91505092915050565b60008115159050919050565b6140b5816140a0565b82525050565b60006020820190506140d060008301846140ac565b92915050565b6140df81613c9e565b81146140ea57600080fd5b50565b6000813590506140fc816140d6565b92915050565b6000806040838503121561411957614118613ea4565b5b60006141278582860161405e565b9250506020614138858286016140ed565b9150509250929050565b600080fd5b60006060828403121561415d5761415c614142565b5b81905092915050565b6000806040838503121561417d5761417c613ea4565b5b600061418b858286016140ed565b925050602083013567ffffffffffffffff8111156141ac576141ab613ea9565b5b6141b885828601614147565b9150509250929050565b600081519050919050565b600082825260208201905092915050565b6000819050602082019050919050565b600081519050919050565b600082825260208201905092915050565b6000614215826141ee565b61421f81856141f9565b935061422f818560208601613f64565b61423881613e18565b840191505092915050565b600061424f838361420a565b905092915050565b6000602082019050919050565b600061426f826141c2565b61427981856141cd565b93508360208202850161428b856141de565b8060005b858110156142c757848403895281516142a88582614243565b94506142b383614257565b925060208a0199505060018101905061428f565b50829750879550505050505092915050565b600060208201905081810360008301526142f38184614264565b905092915050565b600060ff82169050919050565b614311816142fb565b811461431c57600080fd5b50565b60008135905061432e81614308565b92915050565b6000806040838503121561434b5761434a613ea4565b5b6000614359858286016140ed565b925050602061436a8582860161431f565b9150509250929050565b6000806040838503121561438b5761438a613ea4565b5b6000614399858286016140ed565b92505060206143aa858286016140ed565b9150509250929050565b6143bd816142fb565b82525050565b60006040820190506143d860008301856143b4565b6143e56020830184613cb0565b9392505050565b6000806040838503121561440357614402613ea4565b5b6000614411858286016140ed565b92505060206144228582860161405e565b9150509250929050565b60006020820190506144416000830184613cb0565b92915050565b60006060828403121561445d5761445c614142565b5b81905092915050565b6000806040838503121561447d5761447c613ea4565b5b600061448b858286016140ed565b925050602083013567ffffffffffffffff8111156144ac576144ab613ea9565b5b6144b885828601614447565b9150509250929050565b60006144cd826141ee565b6144d78185613df8565b93506144e7818560208601613f64565b6144f081613e18565b840191505092915050565b6000602082019050818103600083015261451581846144c2565b905092915050565b61452681613cf7565b811461453157600080fd5b50565b6000813590506145438161451d565b92915050565b60008060006060848603121561456257614561613ea4565b5b6000614570868287016140ed565b935050602061458186828701614534565b9250506040614592868287016140ed565b9150509250925092565b600081519050919050565b600082825260208201905092915050565b6000819050602082019050919050565b6145d181613c9e565b82525050565b60006145e383836145c8565b60208301905092915050565b6000602082019050919050565b60006146078261459c565b61461181856145a7565b935061461c836145b8565b8060005b8381101561464d57815161463488826145d7565b975061463f836145ef565b925050600181019050614620565b5085935050505092915050565b6000604082019050818103600083015261467481856145fc565b90506146836020830184613cb0565b9392505050565b6000602082840312156146a05761469f613ea4565b5b60006146ae848285016140ed565b91505092915050565b60006040820190506146cc6000830185613cb0565b81810360208301526146de81846144c2565b90509392505050565b60006146fa6146f584613f33565b613f18565b90508281526020810184848401111561471657614715613eb3565b5b614721848285613e09565b509392505050565b600082601f83011261473e5761473d613eae565b5b813561474e8482602086016146e7565b91505092915050565b6002811061476457600080fd5b50565b60008135905061477681614757565b92915050565b600080600080600060a0868803121561479857614797613ea4565b5b60006147a6888289016140ed565b95505060206147b788828901614534565b945050604086013567ffffffffffffffff8111156147d8576147d7613ea9565b5b6147e488828901614729565b93505060606147f588828901614767565b9250506080614806888289016140ed565b9150509295509295909350565b6000819050919050565b61482681614813565b82525050565b6000602082019050614841600083018461481d565b92915050565b600061485282613c7e565b9050919050565b61486281614847565b811461486d57600080fd5b50565b60008135905061487f81614859565b92915050565b60008060008060008060008060008060006101608c8e0312156148ab576148aa613ea4565b5b60006148b98e828f016140ed565b9b505060206148ca8e828f01614534565b9a505060408c013567ffffffffffffffff8111156148eb576148ea613ea9565b5b6148f78e828f01614729565b99505060606149088e828f01614767565b98505060806149198e828f01614534565b97505060a061492a8e828f01614534565b96505060c061493b8e828f01614534565b95505060e061494c8e828f016140ed565b94505061010061495e8e828f01614870565b9350506101208c013567ffffffffffffffff8111156149805761497f613ea9565b5b61498c8e828f01614729565b92505061014061499e8e828f016140ed565b9150509295989b509295989b9093969950565b6149ba81614813565b81146149c557600080fd5b50565b6000813590506149d7816149b1565b92915050565b6149e6816140a0565b81146149f157600080fd5b50565b600081359050614a03816149dd565b92915050565b60008060408385031215614a2057614a1f613ea4565b5b6000614a2e858286016149c8565b9250506020614a3f858286016149f4565b9150509250929050565b614a52816142fb565b82525050565b604082016000820151614a6e6000850182614a49565b506020820151614a8160208501826145c8565b50505050565b6000604082019050614a9c6000830184614a58565b92915050565b6000602082019050614ab76000830184613cbf565b92915050565b600081519050614acc816149dd565b92915050565b600060208284031215614ae857614ae7613ea4565b5b6000614af684828501614abd565b91505092915050565b600080fd5b600080fd5b600080fd5b60008083356001602003843603038112614b2b57614b2a614b09565b5b83810192508235915060208301925067ffffffffffffffff821115614b5357614b52614aff565b5b602082023603831315614b6957614b68614b04565b5b509250929050565b600082825260208201905092915050565b6000819050919050565b6000614b9b6020840184614870565b905092915050565b614bac81614847565b82525050565b6000614bc16020840184614534565b905092915050565b614bd281613cf7565b82525050565b60008083356001602003843603038112614bf557614bf4614b09565b5b83810192508235915060208301925067ffffffffffffffff821115614c1d57614c1c614aff565b5b600182023603831315614c3357614c32614b04565b5b509250929050565b6000614c4783856141f9565b9350614c54838584613e09565b614c5d83613e18565b840190509392505050565b600060608301614c7b6000840184614b8c565b614c886000860182614ba3565b50614c966020840184614bb2565b614ca36020860182614bc9565b50614cb16040840184614bd8565b8583036040870152614cc4838284614c3b565b925050508091505092915050565b6000614cde8383614c68565b905092915050565b600082356001606003833603038112614d0257614d01614b09565b5b82810191505092915050565b6000602082019050919050565b6000614d278385614b71565b935083602084028501614d3984614b82565b8060005b87811015614d7d578484038952614d548284614ce6565b614d5e8582614cd2565b9450614d6983614d0e565b925060208a01995050600181019050614d3d565b50829750879450505050509392505050565b6000614d9e60208401846149c8565b905092915050565b614daf81614813565b82525050565b600060608301614dc86000840184614b0e565b8583036000870152614ddb838284614d1b565b92505050614dec6020840184614bb2565b614df96020860182614bc9565b50614e076040840184614d8f565b614e146040860182614da6565b508091505092915050565b6000819050919050565b6000614e44614e3f614e3a84614e1f565b613dbd565b613cf7565b9050919050565b614e5481614e29565b82525050565b6000608082019050614e6f6000830187613cb0565b8181036020830152614e818186614db5565b9050614e906040830185614e4b565b8181036060830152614ea281846144c2565b905095945050505050565b600080fd5b600080fd5b600080fd5b60008083356001602003843603038112614ed957614ed8614ead565b5b80840192508235915067ffffffffffffffff821115614efb57614efa614eb2565b5b602083019250602082023603831315614f1757614f16614eb7565b5b509250929050565b7f4e487b7100000000000000000000000000000000000000000000000000000000600052603260045260246000fd5b600082356001606003833603038112614f6a57614f69614ead565b5b80830191505092915050565b600060208284031215614f8c57614f8b613ea4565b5b6000614f9a84828501614870565b91505092915050565b614fac81613cf7565b82525050565b6000606082019050614fc76000830186613cb0565b614fd4602083018561481d565b614fe16040830184614fa3565b949350505050565b6000808335600160200384360303811261500657615005614ead565b5b80840192508235915067ffffffffffffffff82111561502857615027614eb2565b5b60208301925060018202360383131561504457615043614eb7565b5b509250929050565b600061506761506261505d84613c7e565b613dbd565b613c7e565b9050919050565b60006150798261504c565b9050919050565b600061508b8261506e565b9050919050565b61509b81615080565b82525050565b7f4e487b7100000000000000000000000000000000000000000000000000000000600052602160045260246000fd5b600281106150e1576150e06150a1565b5b50565b60008190506150f2826150d0565b919050565b6000615102826150e4565b9050919050565b615112816150f7565b82525050565b600060808201905061512d6000830188615092565b61513a6020830187614fa3565b818103604083015261514d818587613e29565b905061515c6060830184615109565b9695505050505050565b6000806040838503121561517d5761517c613ea4565b5b600061518b85828601614abd565b925050602083015167ffffffffffffffff8111156151ac576151ab613ea9565b5b6151b885828601613fd0565b9150509250929050565b60006151cd82613cf7565b91507fffffffffffffffffffffffffffffffffffffffffffffffffffffffffffffffff82036151ff576151fe613d01565b5b600182019050919050565b600060608201905061521f6000830186613cb0565b61522c60208301856140ac565b818103604083015261523e81846144c2565b9050949350505050565b600060408201905061525d600083018561481d565b61526a6020830184614fa3565b9392505050565b60006040820190506152866000830185613cb0565b6152936020830184613cb0565b9392505050565b6000815190506152a981614308565b92915050565b6000602082840312156152c5576152c4613ea4565b5b60006152d38482850161529a565b91505092915050565b60006060820190506152f16000830186613cb0565b6152fe60208301856143b4565b61530b60408301846143b4565b949350505050565b600060208201905061532860008301846143b4565b92915050565b6000606083016153416000840184614ce6565b84820360008601526153538282614c68565b9150506153636020840184614bb2565b6153706020860182614bc9565b5061537e6040840184614d8f565b61538b6040860182614da6565b508091505092915050565b60006080820190506153ab6000830187613cb0565b81810360208301526153bd818661532e565b90506153cc6040830185614e4b565b81810360608301526153de81846144c2565b905095945050505050565b60006040820190506153fe6000830185613cb0565b61540b602083018461481d565b9392505050565b7f4e487b7100000000000000000000000000000000000000000000000000000000600052602260045260246000fd5b6000600282049050600182168061545957607f821691505b60208210810361546c5761546b615412565b5b50919050565b600060a0820190506154876000830188613cb0565b6154946020830187614fa3565b81810360408301526154a681866144c2565b90506154b56060830185615109565b6154c26080830184613cb0565b9695505050505050565b600081519050919050565b6000819050602082019050919050565b60006060830160008301516154ff6000860182614ba3565b5060208301516155126020860182614bc9565b506040830151848203604086015261552a828261420a565b9150508091505092915050565b600061554383836154e7565b905092915050565b6000602082019050919050565b6000615563826154cc565b61556d8185614b71565b93508360208202850161557f856154d7565b8060005b858110156155bb578484038952815161559c8582615537565b94506155a78361554b565b925060208a01995050600181019050615583565b50829750879550505050505092915050565b600060608301600083015184820360008601526155ea8282615558565b91505060208301516155ff6020860182614bc9565b5060408301516156126040860182614da6565b508091505092915050565b60006080820190506156326000830187613cb0565b818103602083015261564481866155cd565b90506156536040830185614e4b565b818103606083015261566581846144c2565b905095945050505050565b6000606083016000830151848203600086015261568d82826154e7565b91505060208301516156a26020860182614bc9565b5060408301516156b56040860182614da6565b508091505092915050565b60006080820190506156d56000830187613cb0565b81810360208301526156e78186615670565b90506156f66040830185614e4b565b818103606083015261570881846144c2565b905095945050505050565b61571c81614847565b82525050565b600061014082019050615738600083018d613cb0565b615745602083018c614fa3565b8181036040830152615757818b6144c2565b9050615766606083018a614fa3565b6157736080830189614fa3565b61578060a0830188614fa3565b61578d60c0830187613cb0565b61579a60e0830186615713565b8181036101008301526157ad81856144c2565b90506157bd610120830184613cb0565b9b9a5050505050505050505050565b60006080820190506157e16000830187613cb0565b81810360208301526157f381866155cd565b90506158026040830185613de9565b818103606083015261581481846144c2565b905095945050505050565b60008190508160005260206000209050919050565b60006020601f8301049050919050565b6000600883026158747fffffffffffffffffffffffffffffffffffffffffffffffffffffffffffffffff82613c12565b61587e8683613c12565b95508019841693508086168417925050509392505050565b60006158b16158ac6158a784613cf7565b613dbd565b613cf7565b9050919050565b6000819050919050565b6158cb83615896565b6158df6158d7826158b8565b848454615844565b825550505050565b600090565b6158f46158e7565b6158ff8184846158c2565b505050565b5b81811015615923576159186000826158ec565b600181019050615905565b5050565b601f821115615968576159398161581f565b61594284615834565b81016020851015615951578190505b61596561595d85615834565b830182615904565b50505b505050565b600082821c905092915050565b600061598b6000198460080261596d565b1980831691505092915050565b60006159a4838361597a565b9150826002028217905092915050565b6159bd826141ee565b67ffffffffffffffff8111156159d6576159d5613eb8565b5b6159e08254615441565b6159eb828285615927565b600060209050601f831160018114615a1e5760008415615a0c578287015190505b615a168582615998565b865550615a7e565b601f198416615a2c8661581f565b60005b82811015615a5457848901518255600182019150602085019450602081019050615a2f565b86831015615a715784890151615a6d601f89168261597a565b8355505b6001600288020188555050505b505050505050565b6000608082019050615a9b6000830187613cb0565b8181036020830152615aad8186615670565b9050615abc6040830185613de9565b8181036060830152615ace81846144c2565b905095945050505050565b600082825260208201905092915050565b7f4f776e61626c6532537465703a2063616c6c6572206973206e6f74207468652060008201527f6e6577206f776e65720000000000000000000000000000000000000000000000602082015250565b6000615b46602983615ad9565b9150615b5182615aea565b604082019050919050565b60006020820190508181036000830152615b7581615b39565b9050919050565b60008154615b8981615441565b615b938186613df8565b94506001821660008114615bae5760018114615bc457615bf7565b60ff198316865281151560200286019350615bf7565b615bcd8561581f565b60005b83811015615bef57815481890152600182019150602081019050615bd0565b808801955050505b50505092915050565b6000606082019050615c156000830186613cb0565b615c2260208301856140ac565b8181036040830152615c348184615b7c565b9050949350505050565b600067ffffffffffffffff82169050919050565b615c5b81615c3e565b8114615c6657600080fd5b50565b600081519050615c7881615c52565b92915050565b60008060408385031215615c9557615c94613ea4565b5b6000615ca385828601615c69565b9250506020615cb485828601615c69565b9150509250929050565b615cc781615c3e565b82525050565b6000608082019050615ce26000830187613cb0565b615cef6020830186615cbe565b615cfc6040830185615cbe565b615d0960608301846143b4565b95945050505050565b6000608082019050615d276000830187613cb0565b615d3460208301866143b4565b615d4160408301856143b4565b615d4e60608301846143b4565b95945050505050565b7f4f776e61626c653a2063616c6c6572206973206e6f7420746865206f776e6572600082015250565b6000615d8d602083615ad9565b9150615d9882615d57565b602082019050919050565b60006020820190508181036000830152615dbc81615d80565b905091905056fea2646970667358221220be28b9d27bb23115de3bf9c48db2436b13de7f9c0b5d53df60ca235a76396ad164736f6c63430008120033",
    "linkReferences": {},
    "deployedLinkReferences": {}
}